{
  "_format": "hh-sol-artifact-1",
  "contractName": "YemekSepeti",
  "sourceName": "contracts/YemekSepeti.sol",
  "abi": [
    {
      "inputs": [],
      "stateMutability": "nonpayable",
      "type": "constructor"
    },
    {
      "inputs": [
        {
          "internalType": "address",
          "name": "owner",
          "type": "address"
        }
      ],
      "name": "OwnableInvalidOwner",
      "type": "error"
    },
    {
      "inputs": [
        {
          "internalType": "address",
          "name": "account",
          "type": "address"
        }
      ],
      "name": "OwnableUnauthorizedAccount",
      "type": "error"
    },
    {
      "anonymous": false,
      "inputs": [
        {
          "indexed": false,
          "internalType": "string",
          "name": "message",
          "type": "string"
        },
        {
          "indexed": false,
          "internalType": "uint256",
          "name": "orderId",
          "type": "uint256"
        },
        {
          "indexed": false,
          "internalType": "uint256",
          "name": "value",
          "type": "uint256"
        },
        {
          "indexed": false,
          "internalType": "address",
          "name": "sender",
          "type": "address"
        }
      ],
      "name": "Debug",
      "type": "event"
    },
    {
      "anonymous": false,
      "inputs": [
        {
          "indexed": false,
          "internalType": "string",
          "name": "message",
          "type": "string"
        },
        {
          "indexed": false,
          "internalType": "address",
          "name": "customer",
          "type": "address"
        },
        {
          "indexed": false,
          "internalType": "address",
          "name": "paymentToken",
          "type": "address"
        },
        {
          "indexed": false,
          "internalType": "uint256",
          "name": "totalAmount",
          "type": "uint256"
        }
      ],
      "name": "Debug",
      "type": "event"
    },
    {
      "anonymous": false,
      "inputs": [
        {
          "indexed": false,
          "internalType": "string",
          "name": "message",
          "type": "string"
        },
        {
          "indexed": false,
          "internalType": "uint256",
          "name": "holdAmount",
          "type": "uint256"
        }
      ],
      "name": "Debug",
      "type": "event"
    },
    {
      "anonymous": false,
      "inputs": [
        {
          "indexed": true,
          "internalType": "address",
          "name": "restaurant",
          "type": "address"
        },
        {
          "indexed": false,
          "internalType": "uint16",
          "name": "bps",
          "type": "uint16"
        }
      ],
      "name": "DefaultSlippageUpdated",
      "type": "event"
    },
    {
      "anonymous": false,
      "inputs": [
        {
          "indexed": true,
          "internalType": "address",
          "name": "restaurant",
          "type": "address"
        },
        {
          "indexed": false,
          "internalType": "string",
          "name": "item",
          "type": "string"
        },
        {
          "indexed": false,
          "internalType": "uint16",
          "name": "bps",
          "type": "uint16"
        }
      ],
      "name": "ItemSlippageUpdated",
      "type": "event"
    },
    {
      "anonymous": false,
      "inputs": [
        {
          "indexed": true,
          "internalType": "uint256",
          "name": "orderId",
          "type": "uint256"
        }
      ],
      "name": "OrderCancelled",
      "type": "event"
    },
    {
      "anonymous": false,
      "inputs": [
        {
          "indexed": true,
          "internalType": "uint256",
          "name": "orderId",
          "type": "uint256"
        }
      ],
      "name": "OrderConfirmed",
      "type": "event"
    },
    {
      "anonymous": false,
      "inputs": [
        {
          "indexed": true,
          "internalType": "uint256",
          "name": "orderId",
          "type": "uint256"
        },
        {
          "indexed": true,
          "internalType": "address",
          "name": "customer",
          "type": "address"
        },
        {
          "indexed": true,
          "internalType": "address",
          "name": "restaurant",
          "type": "address"
        },
        {
          "indexed": false,
          "internalType": "string",
          "name": "itemName",
          "type": "string"
        }
      ],
      "name": "OrderCreated",
      "type": "event"
    },
    {
      "anonymous": false,
      "inputs": [
        {
          "indexed": true,
          "internalType": "uint256",
          "name": "orderId",
          "type": "uint256"
        },
        {
          "indexed": false,
          "internalType": "enum YemekSepeti.OrderStatus",
          "name": "newStatus",
          "type": "uint8"
        }
      ],
      "name": "OrderStatusUpdated",
      "type": "event"
    },
    {
      "anonymous": false,
      "inputs": [
        {
          "indexed": true,
          "internalType": "address",
          "name": "previousOwner",
          "type": "address"
        },
        {
          "indexed": true,
          "internalType": "address",
          "name": "newOwner",
          "type": "address"
        }
      ],
      "name": "OwnershipTransferred",
      "type": "event"
    },
    {
      "stateMutability": "payable",
      "type": "fallback"
    },
    {
      "inputs": [
        {
          "internalType": "uint256",
          "name": "_orderId",
          "type": "uint256"
        }
      ],
      "name": "cancelOrder",
      "outputs": [],
      "stateMutability": "nonpayable",
      "type": "function"
    },
    {
      "inputs": [
        {
          "internalType": "uint256",
          "name": "_orderId",
          "type": "uint256"
        }
      ],
      "name": "cancelOrderAndRefund",
      "outputs": [],
      "stateMutability": "nonpayable",
      "type": "function"
    },
    {
      "inputs": [
        {
          "internalType": "uint256",
          "name": "_orderId",
          "type": "uint256"
        }
      ],
      "name": "confirmOrder",
      "outputs": [],
      "stateMutability": "payable",
      "type": "function"
    },
    {
      "inputs": [
        {
          "internalType": "address",
          "name": "_restaurant",
          "type": "address"
        },
        {
          "internalType": "string[]",
          "name": "_items",
          "type": "string[]"
        },
        {
          "internalType": "uint256[]",
          "name": "_qtys",
          "type": "uint256[]"
        }
      ],
      "name": "createOrderETHDynamicMany",
      "outputs": [],
      "stateMutability": "payable",
      "type": "function"
    },
    {
      "inputs": [
        {
          "internalType": "address",
          "name": "_restaurant",
          "type": "address"
        },
        {
          "internalType": "string[]",
          "name": "_items",
          "type": "string[]"
        },
        {
          "internalType": "uint256[]",
          "name": "_qtys",
          "type": "uint256[]"
        },
        {
          "internalType": "address",
          "name": "_token",
          "type": "address"
        },
        {
          "internalType": "uint256",
          "name": "_tokenAmount",
          "type": "uint256"
        }
      ],
      "name": "createOrderTokenDynamicMany",
      "outputs": [],
      "stateMutability": "nonpayable",
      "type": "function"
    },
    {
      "inputs": [
        {
          "internalType": "address",
          "name": "_restaurant",
          "type": "address"
        },
        {
          "internalType": "string[]",
          "name": "_items",
          "type": "string[]"
        },
        {
          "internalType": "uint256[]",
          "name": "_qtys",
          "type": "uint256[]"
        },
        {
          "internalType": "address",
          "name": "_token",
          "type": "address"
        }
      ],
      "name": "createOrderUsdToToken",
      "outputs": [],
      "stateMutability": "nonpayable",
      "type": "function"
    },
    {
      "inputs": [
        {
          "internalType": "address",
          "name": "",
          "type": "address"
        }
      ],
      "name": "customers",
      "outputs": [
        {
          "internalType": "address",
          "name": "walletAddress",
          "type": "address"
        },
        {
          "internalType": "string",
          "name": "realWorldAddress",
          "type": "string"
        }
      ],
      "stateMutability": "view",
      "type": "function"
    },
    {
      "inputs": [],
      "name": "escrow",
      "outputs": [
        {
          "internalType": "contract IEscrow",
          "name": "",
          "type": "address"
        }
      ],
      "stateMutability": "view",
      "type": "function"
    },
    {
      "inputs": [
        {
          "internalType": "address",
          "name": "_restaurant",
          "type": "address"
        },
        {
          "internalType": "string",
          "name": "_item",
          "type": "string"
        }
      ],
      "name": "getMenuPriceQuote",
      "outputs": [
        {
          "internalType": "uint256",
          "name": "priceUSD",
          "type": "uint256"
        },
        {
          "internalType": "uint8",
          "name": "decimals",
          "type": "uint8"
        }
      ],
      "stateMutability": "view",
      "type": "function"
    },
    {
      "inputs": [
        {
          "internalType": "uint256",
          "name": "_orderId",
          "type": "uint256"
        }
      ],
      "name": "getOrder",
      "outputs": [
        {
          "internalType": "address",
          "name": "customer",
          "type": "address"
        },
        {
          "internalType": "address",
          "name": "restaurant",
          "type": "address"
        },
        {
          "internalType": "string",
          "name": "itemName",
          "type": "string"
        },
        {
          "internalType": "uint256",
          "name": "price",
          "type": "uint256"
        },
        {
          "internalType": "enum YemekSepeti.OrderStatus",
          "name": "status",
          "type": "uint8"
        }
      ],
      "stateMutability": "view",
      "type": "function"
    },
    {
      "inputs": [
        {
          "internalType": "uint256",
          "name": "_orderId",
          "type": "uint256"
        }
      ],
      "name": "getOrderDetails",
      "outputs": [
        {
          "internalType": "address",
          "name": "customer",
          "type": "address"
        },
        {
          "internalType": "address",
          "name": "restaurant",
          "type": "address"
        },
        {
          "internalType": "string",
          "name": "itemName",
          "type": "string"
        },
        {
          "internalType": "uint256",
          "name": "price",
          "type": "uint256"
        },
        {
          "internalType": "address",
          "name": "paymentToken",
          "type": "address"
        },
        {
          "internalType": "enum YemekSepeti.OrderStatus",
          "name": "status",
          "type": "uint8"
        }
      ],
      "stateMutability": "view",
      "type": "function"
    },
    {
      "inputs": [
        {
          "internalType": "uint256",
          "name": "_orderId",
          "type": "uint256"
        },
        {
          "internalType": "uint256",
          "name": "index",
          "type": "uint256"
        }
      ],
      "name": "getOrderItem",
      "outputs": [
        {
          "internalType": "string",
          "name": "name",
          "type": "string"
        },
        {
          "internalType": "uint256",
          "name": "qty",
          "type": "uint256"
        },
        {
          "internalType": "uint256",
          "name": "amount",
          "type": "uint256"
        }
      ],
      "stateMutability": "view",
      "type": "function"
    },
    {
      "inputs": [
        {
          "internalType": "uint256",
          "name": "_orderId",
          "type": "uint256"
        }
      ],
      "name": "getOrderItems",
      "outputs": [
        {
          "components": [
            {
              "internalType": "string",
              "name": "name",
              "type": "string"
            },
            {
              "internalType": "uint256",
              "name": "qty",
              "type": "uint256"
            },
            {
              "internalType": "uint256",
              "name": "amount",
              "type": "uint256"
            }
          ],
          "internalType": "struct YemekSepeti.OrderItem[]",
          "name": "",
          "type": "tuple[]"
        }
      ],
      "stateMutability": "view",
      "type": "function"
    },
    {
      "inputs": [
        {
          "internalType": "uint256",
          "name": "_orderId",
          "type": "uint256"
        }
      ],
      "name": "getOrderItemsCount",
      "outputs": [
        {
          "internalType": "uint256",
          "name": "",
          "type": "uint256"
        }
      ],
      "stateMutability": "view",
      "type": "function"
    },
    {
      "inputs": [
        {
          "internalType": "address",
          "name": "_restaurant",
          "type": "address"
        },
        {
          "internalType": "string",
          "name": "_item",
          "type": "string"
        },
        {
          "internalType": "address",
          "name": "_payToken",
          "type": "address"
        }
      ],
      "name": "getRequiredPayment",
      "outputs": [
        {
          "internalType": "uint256",
          "name": "",
          "type": "uint256"
        }
      ],
      "stateMutability": "view",
      "type": "function"
    },
    {
      "inputs": [
        {
          "internalType": "address",
          "name": "_restaurant",
          "type": "address"
        },
        {
          "internalType": "string[]",
          "name": "_items",
          "type": "string[]"
        },
        {
          "internalType": "uint256[]",
          "name": "_qtys",
          "type": "uint256[]"
        },
        {
          "internalType": "address",
          "name": "_payToken",
          "type": "address"
        }
      ],
      "name": "getRequiredPaymentMany",
      "outputs": [
        {
          "internalType": "uint256",
          "name": "totalAmount",
          "type": "uint256"
        },
        {
          "internalType": "enum PriceMode",
          "name": "mode",
          "type": "uint8"
        }
      ],
      "stateMutability": "view",
      "type": "function"
    },
    {
      "inputs": [
        {
          "internalType": "address",
          "name": "_restaurant",
          "type": "address"
        }
      ],
      "name": "getRestaurantOrders",
      "outputs": [
        {
          "internalType": "uint256[]",
          "name": "",
          "type": "uint256[]"
        }
      ],
      "stateMutability": "view",
      "type": "function"
    },
    {
      "inputs": [
        {
          "internalType": "address",
          "name": "_restaurant",
          "type": "address"
        },
        {
          "internalType": "string",
          "name": "_item",
          "type": "string"
        },
        {
          "internalType": "address",
          "name": "_token",
          "type": "address"
        }
      ],
      "name": "isTokenAccepted",
      "outputs": [
        {
          "internalType": "bool",
          "name": "",
          "type": "bool"
        }
      ],
      "stateMutability": "view",
      "type": "function"
    },
    {
      "inputs": [],
      "name": "oracle",
      "outputs": [
        {
          "internalType": "contract IOracle",
          "name": "",
          "type": "address"
        }
      ],
      "stateMutability": "view",
      "type": "function"
    },
    {
      "inputs": [],
      "name": "orderCounter",
      "outputs": [
        {
          "internalType": "uint256",
          "name": "",
          "type": "uint256"
        }
      ],
      "stateMutability": "view",
      "type": "function"
    },
    {
      "inputs": [
        {
          "internalType": "uint256",
          "name": "",
          "type": "uint256"
        },
        {
          "internalType": "uint256",
          "name": "",
          "type": "uint256"
        }
      ],
      "name": "orderItems",
      "outputs": [
        {
          "internalType": "string",
          "name": "name",
          "type": "string"
        },
        {
          "internalType": "uint256",
          "name": "qty",
          "type": "uint256"
        },
        {
          "internalType": "uint256",
          "name": "amount",
          "type": "uint256"
        }
      ],
      "stateMutability": "view",
      "type": "function"
    },
    {
      "inputs": [
        {
          "internalType": "uint256",
          "name": "",
          "type": "uint256"
        }
      ],
      "name": "orders",
      "outputs": [
        {
          "internalType": "uint256",
          "name": "id",
          "type": "uint256"
        },
        {
          "internalType": "address",
          "name": "customer",
          "type": "address"
        },
        {
          "internalType": "address",
          "name": "restaurant",
          "type": "address"
        },
        {
          "internalType": "string",
          "name": "itemName",
          "type": "string"
        },
        {
          "internalType": "uint256",
          "name": "price",
          "type": "uint256"
        },
        {
          "internalType": "address",
          "name": "paymentToken",
          "type": "address"
        },
        {
          "internalType": "enum YemekSepeti.OrderStatus",
          "name": "status",
          "type": "uint8"
        }
      ],
      "stateMutability": "view",
      "type": "function"
    },
    {
      "inputs": [],
      "name": "owner",
      "outputs": [
        {
          "internalType": "address",
          "name": "",
          "type": "address"
        }
      ],
      "stateMutability": "view",
      "type": "function"
    },
    {
      "inputs": [
        {
          "internalType": "string",
          "name": "_realWorldAddress",
          "type": "string"
        }
      ],
      "name": "registerCustomer",
      "outputs": [],
      "stateMutability": "nonpayable",
      "type": "function"
    },
    {
      "inputs": [
        {
          "internalType": "string",
          "name": "_realWorldAddress",
          "type": "string"
        }
      ],
      "name": "registerRestaurant",
      "outputs": [],
      "stateMutability": "nonpayable",
      "type": "function"
    },
    {
      "inputs": [],
      "name": "renounceOwnership",
      "outputs": [],
      "stateMutability": "nonpayable",
      "type": "function"
    },
    {
      "inputs": [
        {
          "internalType": "address",
          "name": "",
          "type": "address"
        }
      ],
      "name": "restaurants",
      "outputs": [
        {
          "internalType": "address",
          "name": "walletAddress",
          "type": "address"
        },
        {
          "internalType": "string",
          "name": "realWorldAddress",
          "type": "string"
        },
        {
          "internalType": "uint16",
          "name": "defaultSlippageBps",
          "type": "uint16"
        }
      ],
      "stateMutability": "view",
      "type": "function"
    },
    {
      "inputs": [
        {
          "internalType": "string",
          "name": "_item",
          "type": "string"
        },
        {
          "internalType": "address",
          "name": "_token",
          "type": "address"
        },
        {
          "internalType": "bool",
          "name": "_ok",
          "type": "bool"
        }
      ],
      "name": "setAcceptedToken",
      "outputs": [],
      "stateMutability": "nonpayable",
      "type": "function"
    },
    {
      "inputs": [
        {
          "internalType": "uint16",
          "name": "bps",
          "type": "uint16"
        }
      ],
      "name": "setDefaultSlippageBps",
      "outputs": [],
      "stateMutability": "nonpayable",
      "type": "function"
    },
    {
      "inputs": [
        {
          "internalType": "address",
          "name": "_escrow",
          "type": "address"
        }
      ],
      "name": "setEscrow",
      "outputs": [],
      "stateMutability": "nonpayable",
      "type": "function"
    },
    {
      "inputs": [
        {
          "internalType": "string",
          "name": "_item",
          "type": "string"
        },
        {
          "internalType": "uint16",
          "name": "bps",
          "type": "uint16"
        }
      ],
      "name": "setItemSlippageBps",
      "outputs": [],
      "stateMutability": "nonpayable",
      "type": "function"
    },
    {
      "inputs": [
        {
          "internalType": "string",
          "name": "_item",
          "type": "string"
        },
        {
          "internalType": "uint256",
          "name": "_price",
          "type": "uint256"
        },
        {
          "internalType": "uint8",
          "name": "_quoteDecimals",
          "type": "uint8"
        }
      ],
      "name": "setMenuPriceQuote",
      "outputs": [],
      "stateMutability": "nonpayable",
      "type": "function"
    },
    {
      "inputs": [
        {
          "internalType": "address",
          "name": "_oracle",
          "type": "address"
        }
      ],
      "name": "setOracle",
      "outputs": [],
      "stateMutability": "nonpayable",
      "type": "function"
    },
    {
      "inputs": [
        {
          "internalType": "address",
          "name": "newOwner",
          "type": "address"
        }
      ],
      "name": "transferOwnership",
      "outputs": [],
      "stateMutability": "nonpayable",
      "type": "function"
    },
    {
      "inputs": [
        {
          "internalType": "uint256",
          "name": "_orderId",
          "type": "uint256"
        },
        {
          "internalType": "enum YemekSepeti.OrderStatus",
          "name": "_newStatus",
          "type": "uint8"
        }
      ],
      "name": "updateOrderStatus",
      "outputs": [],
      "stateMutability": "nonpayable",
      "type": "function"
    },
    {
      "stateMutability": "payable",
      "type": "receive"
    }
  ],
  "bytecode": "0x608080604052346075573315605f5760008054336001600160a01b0319821681178355916001600160a01b03909116907f8be0079c531659141344cd1fd0a4f28419497f9722a3daafe3b4186f6b6457e09080a3613144908161007b8239f35b631e4fbdf760e01b600052600060045260246000fd5b600080fdfe60806040526004361015610013575b600080fd5b60003560e01c80630bf7d3c1146102435780631378d8061461023e578063215b710514610239578063236cd7dc146102345780632b5e21da1461022f578063336989ae1461022a57806337edfa4214610225578063460d63a6146102205780634fd7e9971461021b578063514fcac7146102165780635aa6c7dd1461021157806370fc576a1461020c578063715018a6146102075780637a0c587c146102025780637adbf973146101fd5780637dc0d1d0146101f85780637e281629146101f35780638ac7d79c146101ee5780638da5cb5b146101e9578063a3b45a2a146101e4578063a85c38ef146101df578063a8c80055146101da578063aab3196d146101d5578063afde9192146101d0578063b59cda8d146101cb578063b68031fc146101c6578063b789bf52146101c1578063b7e9c0cf146101bc578063c10c3546146101b7578063d09ef241146101b2578063df0d449e146101ad578063e2fdcc17146101a8578063ec7dd7bb146101a3578063f2fde38b1461019e5763fb13e2eb0361000e5761277c565b612676565b6125f6565b61257f565b612524565b61248b565b6123f4565b61235e565b612340565b612314565b611f8a565b611f15565b611e5c565b611d73565b611c6f565b611b50565b611b27565b611772565b6113f3565b6113ca565b61137d565b6112e1565b611288565b610e6e565b610d26565b610b8d565b610abb565b610a14565b610983565b6108c8565b6107e9565b610751565b6105dd565b610440565b610355565b634e487b7160e01b600052604160045260246000fd5b604081019081106001600160401b0382111761027957604052565b610248565b606081019081106001600160401b0382111761027957604052565b90601f801991011681019081106001600160401b0382111761027957604052565b604051906102c960e083610299565b565b604051906102c9606083610299565b6001600160401b03811161027957601f01601f191660200190565b929192610301826102da565b9161030f6040519384610299565b82948184528183011161000e578281602093846000960137010152565b9080601f8301121561000e57816020610347933591016102f5565b90565b60ff81160361000e57565b3461000e57606036600319011261000e576004356001600160401b03811161000e5761038590369060040161032c565b6044356024356103948261034a565b336000908152600760205260409020546001600160a01b03161561000e5782511561000e57801561000e57601260ff83161161000e5761041492610405913360005260076020526103ec600260406000200183612839565b5533600090815260076020526040902060030190612839565b9060ff1660ff19825416179055565b005b602060031982011261000e57600435906001600160401b03821161000e576103479160040161032c565b3461000e5761044e36610416565b600160405161045c8161025e565b338152602081019283523360005260066020526104a3604060002091838060a01b03905116829060018060a01b03166bffffffffffffffffffffffff60a01b825416179055565b0190519081516001600160401b038111610279576104cb816104c58454610675565b8461285f565b602092601f821160011461050c576104fd92938291600092610501575b50508160011b916000199060031b1c19161790565b9055005b0151905038806104e8565b601f1982169361052184600052602060002090565b9160005b86811061055b5750836001959610610542575b505050811b019055005b015160001960f88460031b161c19169055388080610538565b91926020600181928685015181550194019201610525565b60005b8381106105865750506000910152565b8181015183820152602001610576565b906020916105af81518092818552858086019101610573565b601f01601f1916010190565b6105d360409295949395606083526060830190610596565b9460208201520152565b3461000e57604036600319011261000e5761060a6004356024359060005260046020526040600020612508565b5060018101549061062f6106226002830154926106af565b91604051938493846105bb565b0390f35b600435906001600160a01b038216820361000e57565b602435906001600160a01b038216820361000e57565b606435906001600160a01b038216820361000e57565b90600182811c921680156106a5575b602083101461068f57565b634e487b7160e01b600052602260045260246000fd5b91607f1691610684565b90604051918260008254926106c384610675565b808452936001811690811561072f57506001146106e8575b506102c992500383610299565b90506000929192526020600020906000915b8183106107135750509060206102c992820101386106db565b60209193508060019154838589010152019101909184926106fa565b9050602092506102c994915060ff191682840152151560051b820101386106db565b3461000e57602036600319011261000e576001600160a01b03610772610633565b16600090815260076020526040902080546001600160a01b031661ffff600561079d600185016106af565b930154166107bd6040519384938452606060208501526060840190610596565b9060408301520390f35b6024359061ffff8216820361000e57565b6004359061ffff8216820361000e57565b3461000e57604036600319011261000e576004356001600160401b03811161000e5761081990369060040161032c565b6108216107c7565b336000908152600760205260409020546001600160a01b03161561000e5781511561000e5761ffff8116916107d0831161000e576108a57ff0a8d656ef6685f9ce0cf72aadde3a2e8d037e6d6823a57588f5cabee5f6d88a92336000526007602052610894600660406000200184612839565b9061ffff1661ffff19825416179055565b6108ba60405191604083526040830190610596565b9260208201528033930390a2005b3461000e57602036600319011261000e576001600160a01b036108e9610633565b16600090815260066020526040902080546001600160a01b031690610910906001016106af565b9061062f6040519283928352604060208401526040830190610596565b90606060031983011261000e576004356001600160a01b038116810361000e5791602435906001600160401b03821161000e5761096c9160040161032c565b906044356001600160a01b038116810361000e5790565b3461000e576109913661092d565b9060409182516109a18482610299565b60018152601f19840160005b818110610a035750506109be6128b1565b908051156109fe5761062f956109ee9460208301526109dc82612905565b5060016109e884612905565b52612dbf565b5090519081529081906020820190565b6124f2565b8060606020809386010152016109ad565b3461000e57610a223661092d565b6001600160a01b03928316600090815260076020526040902080549193909291161561000e57602092610a5e610a7592600460ff950190612839565b9060018060a01b0316600052602052604060002090565b54166040519015158152f35b602060408183019282815284518094520192019060005b818110610aa55750505090565b8251845260209384019390920191600101610a98565b3461000e57602036600319011261000e576001600160a01b03610adc610633565b16600081815260076020526040902054610b04906001600160a01b039081165b161515612832565b600354610b10816128d3565b9060009060005b818110610b2f578284526040518061062f8682610a81565b8460018060a01b03610b5e6002610b50856000526005602052604060002090565b01546001600160a01b031690565b1614610b6d575b600101610b17565b91610b858184610b7f60019488612912565b5261293c565b929050610b65565b3461000e57602036600319011261000e57600435610c19610bf96005610bbd846000526005602052604060002090565b6001810154610bdc906001600160a01b03165b6001600160a01b031690565b33148015610d01575b610bee90612832565b015460a01c60ff1690565b610c0281611c00565b8015908115610cec575b8115610cd8575b50612832565b610c466005610c32836000526005602052604060002090565b01805460ff60a01b1916600160a21b179055565b600154610c5b906001600160a01b0316610bd0565b803b1561000e5760405163278ecde160e01b815260048101839052906000908290602490829084905af18015610cd357610cb8575b507f61b9399f2f0f32ca39ce8d7be32caed5ec22fe07a6daba3a467ed479ec606582600080a2005b80610cc76000610ccd93610299565b8061127d565b38610c90565b612974565b60059150610ce581611c00565b1438610c13565b9050610cf781611c00565b6001811490610c0c565b506002810154610bee90610d1d906001600160a01b0316610bd0565b33149050610be5565b3461000e57610d3436610416565b33600081815260076020526040902080546001600160a01b031916909117815590805160018301916001600160401b03821161027957610d7e82610d788554610675565b8561285f565b602090601f8311600114610dc95782610414959360059593610db6936000926105015750508160011b916000199060031b1c19161790565b90555b01805461ffff19166107d0179055565b90601f19831691610ddf85600052602060002090565b9260005b818110610e26575092600192859261041498966005989610610e0d575b505050811b019055610db9565b015160001960f88460031b161c19169055388080610e00565b92936020600181928786015181550195019301610de3565b9181601f8401121561000e578235916001600160401b03831161000e576020808501948460051b01011161000e57565b606036600319011261000e57610e82610633565b6024356001600160401b03811161000e57610ea1903690600401610e3e565b916044356001600160401b03811161000e57610ec1903690600401610e3e565b9233600052600660205260018060a01b03604060002054161561000e5783851480611274575b610ef090612832565b6001600160a01b03831660009081526007602052604090208054610f1e906001600160a01b03908116610afc565b600254610f3590610bd0906001600160a01b031681565b610f40811515612832565b60009160009060036002820191015b88868b8086106111d75750600495602095506001600160a01b03169350610f7592505050565b60405163d2c8081f60e01b815292839182905afa8015610cd357610fe892610fb9926000926111a2575b50610fb490610faf831515612832565b6129ea565b612a8b565b610fd8610fcb610fd2610fcb84612a0e565b6064900490565b92612a24565b9034101590816111975750612832565b60035493610ffd610ff88661293c565b600355565b61105a6110086102ba565b8681523360208201526001600160a01b0386166040820152611028612aab565b6060820152346080820152600060a0820152600060c0820152611055876000526005602052604060002090565b612ace565b60005b86811061111f576001548690869061107d906001600160a01b0316610bd0565b803b1561000e57604051630b8b4a6160e21b8152600481018490523360248201526001600160a01b0383166044820152906000908290606490829034905af18015610cd35761110a575b506040516001600160a01b039091169133917fe3f4f7fc5607c6ab42a1ec9a7537ede8a0731377be155565f5f20c1fa298f449908061110581612d4d565b0390a4005b80610cc7600061111993610299565b826110c7565b600190611191611139886000526004602052604060002090565b611144838b88612980565b91908861118061116f89610fb46111688a8361116182828a6129da565b35976129da565b3534612a3a565b926111786102cb565b9536916102f5565b845260208401526040830152612c2a565b0161105d565b905034111538610c13565b610fb49192506111c99060203d6020116111d0575b6111c18183610299565b810190612a7c565b9190610f9f565b503d6111b7565b61126292828761121861121188611204849e989c8861120a8e9f9e60019e9f8461125c9d61120492612980565b906129c1565b5497612980565b5460ff1690565b928d60ff85161561126b575b926112446112519361124b936112569661123f851515612832565b6129da565b3590612a3a565b92612a4d565b612a5e565b90612a3a565b90612a6f565b94019190610f4f565b60129450611224565b50841515610ee7565b600091031261000e57565b3461000e57600036600319011261000e576112a16130e5565b600080546001600160a01b0319811682556001600160a01b03167f8be0079c531659141344cd1fd0a4f28419497f9722a3daafe3b4186f6b6457e08280a3005b3461000e57606036600319011261000e576004356001600160401b03811161000e5761131190369060040161032c565b611319610649565b906044359182151580930361000e57336000908152600760205260409020546001600160a01b03161561000e5781511561000e57610a5e61136b92336000526007602052600460406000200190612839565b9060ff80198354169116179055600080f35b3461000e57602036600319011261000e57611396610633565b61139e6130e5565b6001600160a01b0316801561000e576bffffffffffffffffffffffff60a01b6002541617600255600080f35b3461000e57600036600319011261000e576002546040516001600160a01b039091168152602090f35b3461000e57608036600319011261000e5761140c610633565b6024356001600160401b03811161000e5761142b903690600401610e3e565b916044356001600160401b03811161000e5761144b903690600401610e3e565b93909261145661065f565b9333600052600660205260018060a01b03604060002054161561000e5785831480611769575b61148590612832565b6001600160a01b038481166000908152600760205260409020805487926114ad918116610afc565b6002546114c490610bd0906001600160a01b031681565b6114cf811515612832565b60009160009060036002820191015b8b888a8086106117075750505050505091602091611505611539959460018060a01b031690565b604051635ad8204b60e11b815260048101929092526001600160a01b03909216602482015293849190829081906044820190565b03915afa918215610cd3576000926116e6575b50611558821515612832565b60035495611568610ff88861293c565b6115c96115736102ba565b8881523360208201526001600160a01b0388166040820152611593612aab565b6060820152608081018590526001600160a01b03831660a0820152600060c0820152611055896000526005602052604060002090565b6001546115de906001600160a01b0316610bd0565b803b1561000e57604051630518e19b60e31b8152600481018990523360248201526001600160a01b03888116604483015292909216606483015260848201849052600090829060a490829084905af18015610cd3576116d1575b5060005b848110611681576040516001600160a01b03871690339089907fe3f4f7fc5607c6ab42a1ec9a7537ede8a0731377be155565f5f20c1fa298f449908061110581612d4d565b6001906116cb61116f61169e8a6000526004602052604060002090565b8b866111806116ae878d8d612980565b959093610fb46116c48a8361116182828a6129da565b358d612a3a565b0161163c565b80610cc760006116e093610299565b38611638565b61170091925060203d6020116111d0576111c18183610299565b903861154c565b8598509181866117366112118761120484898c9e9f9a60019d61175c9d9f6112049061120a9361125c9e612980565b928c60ff85161561126b57926112446112519361124b936112569661123f851515612832565b94019091899493926114de565b5082151561147c565b602036600319011261000e576004356000818152600560205260409020600201546001600160a01b0316330361000e5780600052600560205260ff60056040600020015460a01c166006811015611b225761000e576040805160808082526013908201527218dbdb999a5c9b53dc99195c8818d85b1b1959606a1b60a08201526020810183905234918101919091523360608201527f8f42520a52b1549dfb4b380e198023c1a79e521f69ba335b1fc61cd4ed8e22a79060c090a1611841816000526005602052604060002090565b6001810154600582018054600490930154604080516080808252600d908201526c4f726465722064657461696c7360981b60a08201526001600160a01b039485166020820152939094169383019390935260608201929092527fcb3aa6184104a2052daa5683aac1b3d0ac687ee4f6a2f9e000bac1360e3222489060c090a16001546118d5906001600160a01b0316610bd0565b604051638387157560e01b8152600481018490529190602090839060249082905afa918215610cd357600092611b01575b507f3c5ad147104e56be34a9176a6692f7df8d2f4b29a5af06bc6b98970d329d65776040518061196f8582919060408352601760408401527f486f6c6420616d6f756e742066726f6d20657363726f770000000000000000006060840152602060808401930152565b0390a161199f600561198b856000526005602052604060002090565b01805460ff60a01b1916600160a01b179055565b6001546119b4906001600160a01b0316610bd0565b90813b1561000e576040516337bdc99b60e01b815260048101859052916000908390602490829084905af1918215610cd3576119fd92611aec575b50546001600160a01b031690565b6001600160a01b0381161580611ae3575b15611a885750611a2081341015612832565b611a34600080808085335af1610c13612d6d565b803411611a65575b505b7faf50e0923cf2eedda3dc56c3d4d73b4d920cee133cd920ffb873db233abecb0c600080a2005b6000808080611a77611a829534612d9d565b335af1610c13612d6d565b38611a3c565b6001600160a01b031615159081611ad9575b5015611abf573415611a3e57611aba600080808034335af1610c13612d6d565b611a3e565b3415611a3e57611aba600080808034335af1610c13612d6d565b9050151538611a9a565b50811515611a0e565b80610cc76000611afb93610299565b386119ef565b611b1b91925060203d6020116111d0576111c18183610299565b9038611906565b611bea565b3461000e57600036600319011261000e576000546040516001600160a01b039091168152602090f35b3461000e57602036600319011261000e57611b696107d8565b336000908152600760205260409020546001600160a01b03161561000e5761ffff8116906107d0821161000e57611bbc9033600052600760205260056040600020019061ffff1661ffff19825416179055565b6040519081527f830c27cbc8cb6e5a63c17db2bbc34134a92b4ba8cf4167270ce9fbc68639e0b060203392a2005b634e487b7160e01b600052602160045260246000fd5b60061115611b2257565b906006821015611b225752565b9081526001600160a01b0391821660208201529116604082015260e0606082018190529295946102c994909360c093611c5291840190610596565b60808301979097526001600160a01b031660a08201520190611c0a565b3461000e57602036600319011261000e5760043560009081526005602052604090208054600182015460028301546001600160a01b039081169391169161062f9190611cbd600383016106af565b91600560048201549101549260405196879660ff8660a01c169560018060a01b03169488611c17565b6001600160401b0381116102795760051b60200190565b9080601f8301121561000e578135611d1481611ce6565b92611d226040519485610299565b81845260208085019260051b82010192831161000e57602001905b828210611d4a5750505090565b8135815260209182019101611d3d565b908152604081019291906002821015611b225760200152565b3461000e57608036600319011261000e57611d8c610633565b602435906001600160401b03821161000e573660238301121561000e578160040135611db781611ce6565b92611dc56040519485610299565b8184526024602085019260051b8201019036821161000e5760248101925b828410611e2d5760443585876001600160401b03831161000e57611e0e611e1d933690600401611cfd565b90611e1761065f565b92612dbf565b9061062f60405192839283611d5a565b83356001600160401b03811161000e57602091611e5183926024369187010161032c565b815201930192611de3565b3461000e57604036600319011261000e57600435602435600681101561000e576000828152600560205260409020600201546001600160a01b0316330361000e5781600052600560205260ff60056040600020015460a01c166006811015611b225760010361000e57611f107fd9a86b644eb5f5b43cc8a700849852481080361c7a4b00ba646d1b46c5585f9591836000526005602052611f04816005604060002001612950565b604051918291826130d5565b0390a2005b3461000e57602036600319011261000e576004356000818152600560205260409020600201546001600160a01b0316330361000e5780600052600560205260ff60056040600020015460a01c166006811015611b225761000e576000818152600560208190526040909120610c469190610c32565b3461000e5760a036600319011261000e57611fa3610633565b6024356001600160401b03811161000e57611fc2903690600401610e3e565b6044929192356001600160401b03811161000e57611fe4903690600401610e3e565b939091611fef61065f565b916084359333600052600660205260018060a01b03604060002054161561000e578683148061230b575b61202290612832565b61202d851515612832565b6001600160a01b0386166000908152600760205260409020805461205b906001600160a01b03908116610afc565b60025461207290610bd0906001600160a01b031681565b61207d811515612832565b6000906000600484016003600286019501945b8c888a8c8187106122b057505050505050506120b391925060018060a01b031690565b60405163e612268560e01b81526001600160a01b038716600482015290602090829060249082905afa8015610cd35761212392612101926000926111a25750610fb490610faf831515612832565b612113610fcb610fd2610fcb84612a0e565b9087101590816122a55750612832565b60035496612133610ff88961293c565b61219461213e6102ba565b8981523360208201526001600160a01b038916604082015261215e612aab565b6060820152608081018890526001600160a01b03871660a0820152600060c08201526110558a6000526005602052604060002090565b8560005b89868210612252576001548a9084908a906121bb906001600160a01b0316610bd0565b91823b1561000e57604051630518e19b60e31b8152600481018690523360248201526001600160a01b038581166044830152929092166064830152608482015290600090829060a490829084905af18015610cd35761110a57506040516001600160a01b039091169133917fe3f4f7fc5607c6ab42a1ec9a7537ede8a0731377be155565f5f20c1fa298f449908061110581612d4d565b610fb4866001948761118061116f89612283898f61227d61229d9b6000526004602052604060002090565b98612980565b9790956112448b8461229682828b6129da565b35986129da565b018690612198565b905086111538610c13565b9282876112186112118d611204849f9c8c9e9f999861120a8d9e9d6122f460019f6122ff9f6112119061125c9f6122ef936112048a8a610a5e94612980565b612832565b61120484848c612980565b95019194939290612090565b50821515612019565b3461000e57602036600319011261000e5760043560005260046020526020604060002054604051908152f35b3461000e57600036600319011261000e576020600354604051908152f35b3461000e57604036600319011261000e57612377610633565b6024356001600160401b03811161000e5761239690369060040161032c565b6001600160a01b03918216600090815260076020526040902080549092161561000e576123d760ff9160036123ce6002860183612839565b54940190612839565b541690801561000e576040805191825260ff929092166020820152f35b3461000e57602036600319011261000e5761240d610633565b6124156130e5565b600154906001600160a01b03821661000e576001600160a01b031690811561000e576001600160a01b03191617600155005b6001600160a01b0391821681529116602082015260a0604082018190529294936102c99390926080929161247e9190830190610596565b9560608201520190611c0a565b3461000e57602036600319011261000e576004356000526005602052604060002060018060a01b0360018201541661062f60018060a01b036002840154169260048101546124e6600360ff600585015460a01c1693016106af565b60405195869586612447565b634e487b7160e01b600052603260045260246000fd5b80548210156109fe576000526003602060002091020190600090565b3461000e57604036600319011261000e57600435602435906000526004602052604060002090815481101561000e5761255c91612508565b50612566816106af565b61062f60026001840154930154604051938493846105bb565b3461000e57600036600319011261000e576001546040516001600160a01b039091168152602090f35b6001600160a01b0391821681529116602082015260c0604082018190529295946102c994909360a0936125dd91840190610596565b966060830152600180841b031660808201520190611c0a565b3461000e57602036600319011261000e5760043580600052600560205260406000209081540361000e57600181015460028201546004830154600584015490936001600160a01b039283169361062f931690612654906003016106af565b60405195869560a085901c60ff16946001600160a01b031693919291876125a8565b3461000e57602036600319011261000e5761268f610633565b6126976130e5565b6001600160a01b031680156126e957600080546001600160a01b03198116831782556001600160a01b0316907f8be0079c531659141344cd1fd0a4f28419497f9722a3daafe3b4186f6b6457e09080a3005b631e4fbdf760e01b600052600060045260246000fd5b602081016020825282518091526040820191602060408360051b8301019401926000915b83831061273257505050505090565b9091929394602080600192603f1985820301865288519060408061275f8451606085526060850190610596565b938581015186850152015191015297019301930191939290612723565b3461000e57602036600319011261000e57600435806000526005602052806040600020540361000e576000526004602052604060002080546127bd81611ce6565b916127cb6040519384610299565b818352602083019060005260206000206000915b8383106127f4576040518061062f87826126ff565b600360206001926040516128078161027e565b612810866106af565b81528486015483820152600286015460408201528152019201920191906127df565b1561000e57565b602090612853928260405194838680955193849201610573565b82019081520301902090565b601f821161286c57505050565b6000526020600020906020601f840160051c830193106128a7575b601f0160051c01905b81811061289b575050565b60008155600101612890565b9091508190612887565b604080519091906128c28382610299565b6001815291601f1901366020840137565b906128dd82611ce6565b6128ea6040519182610299565b82815280926128fb601f1991611ce6565b0190602036910137565b8051156109fe5760200190565b80518210156109fe5760209160051b010190565b634e487b7160e01b600052601160045260246000fd5b600019811461294b5760010190565b612926565b906006811015611b2257815460ff60a01b191660a09190911b60ff60a01b16179055565b6040513d6000823e3d90fd5b91908110156109fe5760051b81013590601e198136030182121561000e5701908135916001600160401b03831161000e57602001823603811361000e579190565b6020919283604051948593843782019081520301902090565b91908110156109fe5760051b0190565b90670de0b6b3a7640000820291808304670de0b6b3a7640000149015171561294b57565b90605a820291808304605a149015171561294b57565b90606e820291808304606e149015171561294b57565b8181029291811591840414171561294b57565b60ff166012039060ff821161294b57565b60ff16604d811161294b57600a0a90565b9190820180921161294b57565b9081602091031261000e575190565b8115612a95570490565b634e487b7160e01b600052601260045260246000fd5b60405190612aba604083610299565b60058252644d554c544960d81b6020830152565b8151815560208201516001820180546001600160a01b039283166001600160a01b03199182161790915560408401516002840180549190931691161790556060820151805160038301916001600160401b03821161027957612b3482610d788554610675565b602090601f8311600114612bb25792612b6f836005946102c998979460c0976000926105015750508160011b916000199060031b1c19161790565b90555b6080840151600482015560a0840151910180546001600160a01b0319166001600160a01b0390921691909117815591015190612bad82611c00565b612950565b90601f19831691612bc885600052602060002090565b9260005b818110612c125750936102c997969360c096936001938360059810612bf9575b505050811b019055612b72565b015160001960f88460031b161c19169055388080612bec565b92936020600181928786015181550195019301612bcc565b80546801000000000000000081101561027957612c4c91600182018155612508565b919091612d375780518051906001600160401b03821161027957612c7a82612c748654610675565b8661285f565b602090601f8311600114612cc4578260409360029593612cb0936000926105015750508160011b916000199060031b1c19161790565b84555b602081015160018501550151910155565b90601f19831691612cda86600052602060002090565b9260005b818110612d1f57509260019285926040966002989610612d06575b505050811b018455612cb3565b015160001960f88460031b161c19169055388080612cf9565b92936020600181928786015181550195019301612cde565b634e487b7160e01b600052600060045260246000fd5b6060906020815260056020820152644d554c544960d81b60408201520190565b3d15612d98573d90612d7e826102da565b91612d8c6040519384610299565b82523d6000602084013e565b606090565b9190820391821161294b57565b9081602091031261000e57516103478161034a565b9190939293612df9600093612ddf83518551811490816130cb5750612832565b6001600160a01b0316600090815260076020526040902090565b8054909490612e12906001600160a01b03908116610afc565b600254612e2990610bd0906001600160a01b031681565b94612e35861515612832565b6001600160a01b0387169687612f4a5750600496506000956020906001600160a01b031660405163d2c8081f60e01b815298899182905afa968715610cd357600097612f29575b50612e8c87969592961515612832565b6000946003600283019201925b8451871015612f1e57612f0d60019161125c8b610fb4610faf8b8b8e612edc6112118e612ecf8f612ed58691612ecf838a612912565b51612839565b5496612912565b9260ff841615612f15575b82612f066112519361124b93612f01611256971515612832565b612912565b5190612a3a565b960195612e99565b60129350612ee7565b975095945050505050565b612f4391975060203d6020116111d0576111c18183610299565b9538612e7c565b60405163e612268560e01b81526001600160a01b038083166004830152600199949892969195939491939260209187916024918391165afa948515610cd3576000956130a6575b506020600491612fa2871515612832565b60405163313ce56760e01b815292839182905afa938415610cd3578991600095613075575b5090809594939291600097600482016003600284019301935b612ff3575b505050505050505050509190565b9091929394959697989985518b101561306c5761305b8a9161125c8b610fb48f6112566130558f928f908f908f8f8f918f84612ed56112119461304b6122ef611211612edc99610a5e612ecf98612ecf8f8a90612912565b612ecf838a612912565b91612a5e565b9a0198979695949392919088612fe0565b99899850612fe5565b61309891955060203d60201161309f575b6130908183610299565b810190612daa565b9338612fc7565b503d613086565b60049195506130c3602091823d84116111d0576111c18183610299565b959150612f91565b9050151538610c13565b6020810192916102c99190611c0a565b6000546001600160a01b031633036130f957565b63118cdaa760e01b6000523360045260246000fdfea26469706673582212205167471cbf6bd22d34ac2bb7f014ec176d79d195cbb9e5923e9fe05f32fc9ef864736f6c634300081c0033",
  "linkReferences": {},
  "deployedLinkReferences": {}
}