{
  "_format": "hh-sol-artifact-1",
  "contractName": "Escrow",
  "sourceName": "contracts/Escrow.sol",
  "abi": [
    {
      "inputs": [
        {
          "internalType": "address",
          "name": "_allowedCaller",
          "type": "address"
        }
      ],
      "stateMutability": "nonpayable",
      "type": "constructor"
    },
    {
      "anonymous": false,
      "inputs": [
        {
          "indexed": true,
          "internalType": "uint256",
          "name": "orderId",
          "type": "uint256"
        },
        {
          "indexed": false,
          "internalType": "address",
          "name": "payer",
          "type": "address"
        },
        {
          "indexed": false,
          "internalType": "address",
          "name": "payee",
          "type": "address"
        },
        {
          "indexed": false,
          "internalType": "uint256",
          "name": "amount",
          "type": "uint256"
        }
      ],
      "name": "Deposited",
      "type": "event"
    },
    {
      "anonymous": false,
      "inputs": [
        {
          "indexed": true,
          "internalType": "uint256",
          "name": "orderId",
          "type": "uint256"
        },
        {
          "indexed": false,
          "internalType": "address",
          "name": "payer",
          "type": "address"
        },
        {
          "indexed": false,
          "internalType": "address",
          "name": "payee",
          "type": "address"
        },
        {
          "indexed": false,
          "internalType": "address",
          "name": "token",
          "type": "address"
        },
        {
          "indexed": false,
          "internalType": "uint256",
          "name": "amount",
          "type": "uint256"
        }
      ],
      "name": "DepositedToken",
      "type": "event"
    },
    {
      "anonymous": false,
      "inputs": [
        {
          "indexed": true,
          "internalType": "uint256",
          "name": "orderId",
          "type": "uint256"
        },
        {
          "indexed": false,
          "internalType": "address",
          "name": "to",
          "type": "address"
        },
        {
          "indexed": false,
          "internalType": "uint256",
          "name": "amount",
          "type": "uint256"
        }
      ],
      "name": "Refunded",
      "type": "event"
    },
    {
      "anonymous": false,
      "inputs": [
        {
          "indexed": true,
          "internalType": "uint256",
          "name": "orderId",
          "type": "uint256"
        },
        {
          "indexed": false,
          "internalType": "address",
          "name": "to",
          "type": "address"
        },
        {
          "indexed": false,
          "internalType": "uint256",
          "name": "amount",
          "type": "uint256"
        }
      ],
      "name": "Released",
      "type": "event"
    },
    {
      "stateMutability": "payable",
      "type": "fallback"
    },
    {
      "inputs": [],
      "name": "allowedCaller",
      "outputs": [
        {
          "internalType": "address",
          "name": "",
          "type": "address"
        }
      ],
      "stateMutability": "view",
      "type": "function"
    },
    {
      "inputs": [
        {
          "internalType": "uint256",
          "name": "orderId",
          "type": "uint256"
        },
        {
          "internalType": "address",
          "name": "payer",
          "type": "address"
        },
        {
          "internalType": "address",
          "name": "payee",
          "type": "address"
        }
      ],
      "name": "deposit",
      "outputs": [],
      "stateMutability": "payable",
      "type": "function"
    },
    {
      "inputs": [
        {
          "internalType": "uint256",
          "name": "orderId",
          "type": "uint256"
        },
        {
          "internalType": "address",
          "name": "payer",
          "type": "address"
        },
        {
          "internalType": "address",
          "name": "payee",
          "type": "address"
        },
        {
          "internalType": "address",
          "name": "token",
          "type": "address"
        },
        {
          "internalType": "uint256",
          "name": "amount",
          "type": "uint256"
        }
      ],
      "name": "depositToken",
      "outputs": [],
      "stateMutability": "nonpayable",
      "type": "function"
    },
    {
      "inputs": [
        {
          "internalType": "uint256",
          "name": "orderId",
          "type": "uint256"
        }
      ],
      "name": "getHoldAmount",
      "outputs": [
        {
          "internalType": "uint256",
          "name": "",
          "type": "uint256"
        }
      ],
      "stateMutability": "view",
      "type": "function"
    },
    {
      "inputs": [
        {
          "internalType": "uint256",
          "name": "",
          "type": "uint256"
        }
      ],
      "name": "holds",
      "outputs": [
        {
          "internalType": "uint256",
          "name": "amount",
          "type": "uint256"
        },
        {
          "internalType": "address",
          "name": "payer",
          "type": "address"
        },
        {
          "internalType": "address",
          "name": "token",
          "type": "address"
        },
        {
          "internalType": "address",
          "name": "payee",
          "type": "address"
        },
        {
          "internalType": "bool",
          "name": "releasedOrRefunded",
          "type": "bool"
        }
      ],
      "stateMutability": "view",
      "type": "function"
    },
    {
      "inputs": [
        {
          "internalType": "uint256",
          "name": "orderId",
          "type": "uint256"
        }
      ],
      "name": "refund",
      "outputs": [],
      "stateMutability": "nonpayable",
      "type": "function"
    },
    {
      "inputs": [
        {
          "internalType": "uint256",
          "name": "orderId",
          "type": "uint256"
        }
      ],
      "name": "release",
      "outputs": [],
      "stateMutability": "nonpayable",
      "type": "function"
    },
    {
      "inputs": [
        {
          "internalType": "uint256",
          "name": "orderId",
          "type": "uint256"
        },
        {
          "internalType": "address",
          "name": "oracleAddress",
          "type": "address"
        }
      ],
      "name": "releaseTokenAsUsd",
      "outputs": [],
      "stateMutability": "nonpayable",
      "type": "function"
    },
    {
      "stateMutability": "payable",
      "type": "receive"
    }
  ],
  "bytecode": "0x60a03461008d57601f610b7838819003918201601f19168301916001600160401b038311848410176100925780849260209460405283398101031261008d57516001600160a01b038116810361008d57608052604051610acf90816100a9823960805181818161012d015281816101720152818161032f015281816104d2015281816106e901526108900152f35b600080fd5b634e487b7160e01b600052604160045260246000fdfe6080806040526004361015610016575b505b600080fd5b60003560e01c90816308bb9ace1461087057508063278ecde1146106d357806328c70cd8146104935780632e2d29841461030d57806337bdc99b1461015c5780633895d9381461011757806383871575146100eb5763b71b05821461007b573861000f565b3461001157602036600319011261001157600435600052600060205260a0604060002060ff815491600180851b03600182015416906003600180871b036002830154169101549160405194855260208501526040840152600180851b0381166060840152831c1615156080820152f35b346100115760203660031901126100115760043560005260006020526020604060002054604051908152f35b34610011576000366003190112610011576040517f00000000000000000000000000000000000000000000000000000000000000006001600160a01b03168152602090f35b34610011576020366003190112610011576004357f00000000000000000000000000000000000000000000000000000000000000006001600160a01b031633036100115780600052600060205260406000206003810190815460ff8160a01c161580610303575b156100115760ff60a01b198116600160a01b17835560028201546001600160a01b031680610258575050600080808060018060a01b038654168554905af1610209610a59565b5015610011577f3bfce8de0db7450cc169b94323c210e69a36c6a4a58c9f5d96bec4973adce392915b549054604080516001600160a01b0390931683526020830191909152819081015b0390a2005b825460405163a9059cbb60e01b81526001600160a01b039390931660048401526024830152602090829060449082906000905af19081156102f7576000916102c8575b5015610011577f3bfce8de0db7450cc169b94323c210e69a36c6a4a58c9f5d96bec4973adce39291610232565b6102ea915060203d6020116102f0575b6102e28183610a1f565b810190610a41565b8461029b565b503d6102d8565b6040513d6000823e3d90fd5b50815415156101c3565b6060366003190112610011576004356103246109c1565b61032c6109d7565b907f00000000000000000000000000000000000000000000000000000000000000006001600160a01b03163303610011573415610011578260005260006020526040600020541580610474575b15610011577f984a71c9d95fd4794aeba33ae72edfec22053fde75488d63abef9dc69ee795af9161044b6040516103af816109ed565b3481526001600160a01b0384811660208084019182526000604080860182815288861660608801908152608088018481528d855294849052919092209551865592516001860180549186166001600160a01b0319928316179055905160028601805491861691909216179055905160039093018054915160ff60a01b90151560a01b16939092166001600160a81b031990911617919091179055565b604080516001600160a01b03938416815292909116602083015234908201528060608101610253565b5082600052600060205260ff60036040600020015460a01c1615610379565b346100115760a0366003190112610011576004356104af6109c1565b6104b76109d7565b6064356001600160a01b0381169290839003610011576084357f00000000000000000000000000000000000000000000000000000000000000006001600160a01b031633036100115780156100115784600052600060205260406000205415806106b4575b15610011576040516323b872dd60e01b81526001600160a01b0383166004820152306024820152604481018290526020816064816000895af19081156102f757600091610695575b5015610011577ff1a4f9a4b4645f4f88b86d2a7e624b53b06d04c7ace77262e4f9d384cf6f07829360809361067d6040519161059f836109ed565b848352602083019560018060a01b03169586815260036040850194868652606081019360018060a01b0316958685528a820193600085528d600052600060205260406000209251835560018060a01b03905116600183019060018060a01b03166001600160601b0360a01b82541617905560018060a01b03905116600282019060018060a01b03166001600160601b0360a01b825416179055019160018060a01b039060018060a01b03905116166001600160601b0360a01b83541617825551151581549060ff60a01b90151560a01b169060ff60a01b1916179055565b604051938452602084015260408301526060820152a2005b6106ae915060203d6020116102f0576102e28183610a1f565b86610564565b5084600052600060205260ff60036040600020015460a01c161561051c565b34610011576020366003190112610011576004357f00000000000000000000000000000000000000000000000000000000000000006001600160a01b0316330361001157806000526000602052604060002060038101805460ff8160a01c161580610866575b156100115760ff60a01b1916600160a01b17905560028101546001600160a01b0316806107d25750600080808060018060a01b036001860154168554905af1610780610a59565b5015610011577f7ca5472b7ea78c2c0141c5a12ee6d170cf4ce8ed06be3d22c8252ddfc7a6a2c4905b60018101549054604080516001600160a01b039093168352602083019190915281908101610253565b6001820154825460405163a9059cbb60e01b81526001600160a01b039092166004830152602482015290602090829060449082906000905af19081156102f757600091610847575b5015610011577f7ca5472b7ea78c2c0141c5a12ee6d170cf4ce8ed06be3d22c8252ddfc7a6a2c4906107a9565b610860915060203d6020116102f0576102e28183610a1f565b8361081a565b5082541515610739565b34610011576040366003190112610011576004359061088d6109c1565b507f00000000000000000000000000000000000000000000000000000000000000006001600160a01b031633036100115781600052600060205260406000206003810191825460ff8160a01c1615806109b7575b156100115760028301546001600160a01b031690811561001157600160a01b60ff60a01b198216178555835463a9059cbb60e01b84526001600160a01b0390911660048401526024830152602090829060449082906000905af19081156102f7576000916109985750156100115790549054604080516001600160a01b03909316835260208301919091527f3bfce8de0db7450cc169b94323c210e69a36c6a4a58c9f5d96bec4973adce392919081908101610253565b6109b1915060203d6020116102f0576102e28183610a1f565b84610209565b50825415156108e1565b602435906001600160a01b038216820361001157565b604435906001600160a01b038216820361001157565b60a0810190811067ffffffffffffffff821117610a0957604052565b634e487b7160e01b600052604160045260246000fd5b90601f8019910116810190811067ffffffffffffffff821117610a0957604052565b90816020910312610011575180151581036100115790565b3d15610a94573d9067ffffffffffffffff8211610a095760405191610a88601f8201601f191660200184610a1f565b82523d6000602084013e565b60609056fea2646970667358221220eb3527e7b90e7dc2e325a128b1697d8cef851b0455cc555da31a4a44e0307c8e64736f6c634300081c0033",
  "linkReferences": {},
  "deployedLinkReferences": {}
}