{
  "_format": "hh-sol-artifact-1",
  "contractName": "DummyOracle",
  "sourceName": "contracts/Oracle.sol",
  "abi": [
    {
      "inputs": [],
      "stateMutability": "nonpayable",
      "type": "constructor"
    },
    {
      "inputs": [],
      "name": "AccessControlBadConfirmation",
      "type": "error"
    },
    {
      "inputs": [
        {
          "internalType": "address",
          "name": "account",
          "type": "address"
        },
        {
          "internalType": "bytes32",
          "name": "neededRole",
          "type": "bytes32"
        }
      ],
      "name": "AccessControlUnauthorizedAccount",
      "type": "error"
    },
    {
      "anonymous": false,
      "inputs": [
        {
          "indexed": false,
          "internalType": "uint256",
          "name": "priceE18",
          "type": "uint256"
        },
        {
          "indexed": false,
          "internalType": "uint256",
          "name": "timestamp",
          "type": "uint256"
        },
        {
          "indexed": true,
          "internalType": "address",
          "name": "updater",
          "type": "address"
        }
      ],
      "name": "EthPriceUpdated",
      "type": "event"
    },
    {
      "anonymous": false,
      "inputs": [
        {
          "indexed": true,
          "internalType": "address",
          "name": "account",
          "type": "address"
        }
      ],
      "name": "FeederGranted",
      "type": "event"
    },
    {
      "anonymous": false,
      "inputs": [
        {
          "indexed": true,
          "internalType": "address",
          "name": "account",
          "type": "address"
        }
      ],
      "name": "FeederRevoked",
      "type": "event"
    },
    {
      "anonymous": false,
      "inputs": [
        {
          "indexed": true,
          "internalType": "bytes32",
          "name": "role",
          "type": "bytes32"
        },
        {
          "indexed": true,
          "internalType": "bytes32",
          "name": "previousAdminRole",
          "type": "bytes32"
        },
        {
          "indexed": true,
          "internalType": "bytes32",
          "name": "newAdminRole",
          "type": "bytes32"
        }
      ],
      "name": "RoleAdminChanged",
      "type": "event"
    },
    {
      "anonymous": false,
      "inputs": [
        {
          "indexed": true,
          "internalType": "bytes32",
          "name": "role",
          "type": "bytes32"
        },
        {
          "indexed": true,
          "internalType": "address",
          "name": "account",
          "type": "address"
        },
        {
          "indexed": true,
          "internalType": "address",
          "name": "sender",
          "type": "address"
        }
      ],
      "name": "RoleGranted",
      "type": "event"
    },
    {
      "anonymous": false,
      "inputs": [
        {
          "indexed": true,
          "internalType": "bytes32",
          "name": "role",
          "type": "bytes32"
        },
        {
          "indexed": true,
          "internalType": "address",
          "name": "account",
          "type": "address"
        },
        {
          "indexed": true,
          "internalType": "address",
          "name": "sender",
          "type": "address"
        }
      ],
      "name": "RoleRevoked",
      "type": "event"
    },
    {
      "anonymous": false,
      "inputs": [
        {
          "indexed": true,
          "internalType": "address",
          "name": "token",
          "type": "address"
        },
        {
          "indexed": false,
          "internalType": "uint8",
          "name": "decimals",
          "type": "uint8"
        },
        {
          "indexed": true,
          "internalType": "address",
          "name": "setter",
          "type": "address"
        }
      ],
      "name": "TokenDecimalsSet",
      "type": "event"
    },
    {
      "anonymous": false,
      "inputs": [
        {
          "indexed": true,
          "internalType": "address",
          "name": "token",
          "type": "address"
        },
        {
          "indexed": false,
          "internalType": "uint256",
          "name": "priceE18",
          "type": "uint256"
        },
        {
          "indexed": false,
          "internalType": "uint256",
          "name": "timestamp",
          "type": "uint256"
        },
        {
          "indexed": true,
          "internalType": "address",
          "name": "updater",
          "type": "address"
        }
      ],
      "name": "TokenPriceUpdated",
      "type": "event"
    },
    {
      "inputs": [],
      "name": "DEFAULT_ADMIN_ROLE",
      "outputs": [
        {
          "internalType": "bytes32",
          "name": "",
          "type": "bytes32"
        }
      ],
      "stateMutability": "view",
      "type": "function"
    },
    {
      "inputs": [],
      "name": "FEEDER_ROLE",
      "outputs": [
        {
          "internalType": "bytes32",
          "name": "",
          "type": "bytes32"
        }
      ],
      "stateMutability": "view",
      "type": "function"
    },
    {
      "inputs": [],
      "name": "_ethPriceE18",
      "outputs": [
        {
          "internalType": "uint256",
          "name": "",
          "type": "uint256"
        }
      ],
      "stateMutability": "view",
      "type": "function"
    },
    {
      "inputs": [
        {
          "internalType": "address",
          "name": "",
          "type": "address"
        }
      ],
      "name": "_tokenPriceE18",
      "outputs": [
        {
          "internalType": "uint256",
          "name": "",
          "type": "uint256"
        }
      ],
      "stateMutability": "view",
      "type": "function"
    },
    {
      "inputs": [
        {
          "internalType": "uint256",
          "name": "tokenAmount",
          "type": "uint256"
        },
        {
          "internalType": "address",
          "name": "token",
          "type": "address"
        }
      ],
      "name": "convertTokenToUsd",
      "outputs": [
        {
          "internalType": "uint256",
          "name": "",
          "type": "uint256"
        }
      ],
      "stateMutability": "view",
      "type": "function"
    },
    {
      "inputs": [
        {
          "internalType": "uint256",
          "name": "usdAmountE18",
          "type": "uint256"
        },
        {
          "internalType": "address",
          "name": "token",
          "type": "address"
        }
      ],
      "name": "convertUsdToToken",
      "outputs": [
        {
          "internalType": "uint256",
          "name": "",
          "type": "uint256"
        }
      ],
      "stateMutability": "view",
      "type": "function"
    },
    {
      "inputs": [],
      "name": "currentEthPriceE18",
      "outputs": [
        {
          "internalType": "uint256",
          "name": "",
          "type": "uint256"
        }
      ],
      "stateMutability": "view",
      "type": "function"
    },
    {
      "inputs": [
        {
          "internalType": "address",
          "name": "token",
          "type": "address"
        }
      ],
      "name": "currentTokenPriceE18",
      "outputs": [
        {
          "internalType": "uint256",
          "name": "",
          "type": "uint256"
        }
      ],
      "stateMutability": "view",
      "type": "function"
    },
    {
      "inputs": [],
      "name": "ethLastUpdatedAt",
      "outputs": [
        {
          "internalType": "uint256",
          "name": "",
          "type": "uint256"
        }
      ],
      "stateMutability": "view",
      "type": "function"
    },
    {
      "inputs": [
        {
          "internalType": "bytes32",
          "name": "role",
          "type": "bytes32"
        }
      ],
      "name": "getRoleAdmin",
      "outputs": [
        {
          "internalType": "bytes32",
          "name": "",
          "type": "bytes32"
        }
      ],
      "stateMutability": "view",
      "type": "function"
    },
    {
      "inputs": [
        {
          "internalType": "address",
          "name": "token",
          "type": "address"
        }
      ],
      "name": "getTokenPrice",
      "outputs": [
        {
          "internalType": "uint256",
          "name": "",
          "type": "uint256"
        }
      ],
      "stateMutability": "view",
      "type": "function"
    },
    {
      "inputs": [
        {
          "internalType": "address",
          "name": "account",
          "type": "address"
        }
      ],
      "name": "grantFeeder",
      "outputs": [],
      "stateMutability": "nonpayable",
      "type": "function"
    },
    {
      "inputs": [
        {
          "internalType": "bytes32",
          "name": "role",
          "type": "bytes32"
        },
        {
          "internalType": "address",
          "name": "account",
          "type": "address"
        }
      ],
      "name": "grantRole",
      "outputs": [],
      "stateMutability": "nonpayable",
      "type": "function"
    },
    {
      "inputs": [
        {
          "internalType": "bytes32",
          "name": "role",
          "type": "bytes32"
        },
        {
          "internalType": "address",
          "name": "account",
          "type": "address"
        }
      ],
      "name": "hasRole",
      "outputs": [
        {
          "internalType": "bool",
          "name": "",
          "type": "bool"
        }
      ],
      "stateMutability": "view",
      "type": "function"
    },
    {
      "inputs": [
        {
          "internalType": "uint256",
          "name": "amountWei",
          "type": "uint256"
        }
      ],
      "name": "quoteEth",
      "outputs": [
        {
          "internalType": "uint256",
          "name": "",
          "type": "uint256"
        }
      ],
      "stateMutability": "view",
      "type": "function"
    },
    {
      "inputs": [],
      "name": "quoteSymbol",
      "outputs": [
        {
          "internalType": "string",
          "name": "",
          "type": "string"
        }
      ],
      "stateMutability": "view",
      "type": "function"
    },
    {
      "inputs": [
        {
          "internalType": "address",
          "name": "token",
          "type": "address"
        },
        {
          "internalType": "uint256",
          "name": "amount",
          "type": "uint256"
        }
      ],
      "name": "quoteToken",
      "outputs": [
        {
          "internalType": "uint256",
          "name": "",
          "type": "uint256"
        }
      ],
      "stateMutability": "view",
      "type": "function"
    },
    {
      "inputs": [
        {
          "internalType": "bytes32",
          "name": "role",
          "type": "bytes32"
        },
        {
          "internalType": "address",
          "name": "callerConfirmation",
          "type": "address"
        }
      ],
      "name": "renounceRole",
      "outputs": [],
      "stateMutability": "nonpayable",
      "type": "function"
    },
    {
      "inputs": [
        {
          "internalType": "address",
          "name": "account",
          "type": "address"
        }
      ],
      "name": "revokeFeeder",
      "outputs": [],
      "stateMutability": "nonpayable",
      "type": "function"
    },
    {
      "inputs": [
        {
          "internalType": "bytes32",
          "name": "role",
          "type": "bytes32"
        },
        {
          "internalType": "address",
          "name": "account",
          "type": "address"
        }
      ],
      "name": "revokeRole",
      "outputs": [],
      "stateMutability": "nonpayable",
      "type": "function"
    },
    {
      "inputs": [
        {
          "internalType": "uint256",
          "name": "priceE18",
          "type": "uint256"
        }
      ],
      "name": "setEthPrice",
      "outputs": [],
      "stateMutability": "nonpayable",
      "type": "function"
    },
    {
      "inputs": [
        {
          "internalType": "address",
          "name": "token",
          "type": "address"
        },
        {
          "internalType": "uint8",
          "name": "decimals_",
          "type": "uint8"
        }
      ],
      "name": "setTokenDecimals",
      "outputs": [],
      "stateMutability": "nonpayable",
      "type": "function"
    },
    {
      "inputs": [
        {
          "internalType": "address",
          "name": "token",
          "type": "address"
        },
        {
          "internalType": "uint256",
          "name": "priceE18",
          "type": "uint256"
        }
      ],
      "name": "setTokenPrice",
      "outputs": [],
      "stateMutability": "nonpayable",
      "type": "function"
    },
    {
      "inputs": [
        {
          "internalType": "bytes4",
          "name": "interfaceId",
          "type": "bytes4"
        }
      ],
      "name": "supportsInterface",
      "outputs": [
        {
          "internalType": "bool",
          "name": "",
          "type": "bool"
        }
      ],
      "stateMutability": "view",
      "type": "function"
    },
    {
      "inputs": [
        {
          "internalType": "address",
          "name": "",
          "type": "address"
        }
      ],
      "name": "tokenDecimals",
      "outputs": [
        {
          "internalType": "uint8",
          "name": "",
          "type": "uint8"
        }
      ],
      "stateMutability": "view",
      "type": "function"
    },
    {
      "inputs": [
        {
          "internalType": "address",
          "name": "",
          "type": "address"
        }
      ],
      "name": "tokenLastUpdatedAt",
      "outputs": [
        {
          "internalType": "uint256",
          "name": "",
          "type": "uint256"
        }
      ],
      "stateMutability": "view",
      "type": "function"
    },
    {
      "inputs": [
        {
          "internalType": "address",
          "name": "",
          "type": "address"
        }
      ],
      "name": "tokenPrices",
      "outputs": [
        {
          "internalType": "uint256",
          "name": "",
          "type": "uint256"
        }
      ],
      "stateMutability": "view",
      "type": "function"
    }
  ],
  "bytecode": "0x6080604052346100c657600154600181811c911680156100bc575b60208210146100a657601f811161005c575b6006621554d160ea1b01600155610042336100cb565b5061004c33610147565b50604051610e0c90816101e08239f35b6001600052601f0160051c7fb10e2d527612073b26eecdfd717e6a320cf44b4afac2b0732d9fcbe2b7fa0cf6908101905b81811061009a575061002c565b6000815560010161008d565b634e487b7160e01b600052602260045260246000fd5b90607f169061001a565b600080fd5b6001600160a01b038116600090815260008051602061102c833981519152602052604090205460ff16610141576001600160a01b0316600081815260008051602061102c83398151915260205260408120805460ff19166001179055339190600080516020610fec8339815191528180a4600190565b50600090565b6001600160a01b038116600090815260008051602061100c833981519152602052604090205460ff16610141576001600160a01b0316600081815260008051602061100c83398151915260205260408120805460ff191660011790553391907f80a586cc4ecf40a390b370be075aa38ab3cc512c5c1a7bc1007974dbdf2663c790600080516020610fec8339815191529080a460019056fe6080604052600436101561001257600080fd5b60003560e01c80629f92621461098457806301ffc9a71461092e57806319afd62a146108d3578063204120bc1461024b578063248a9ca3146108a6578063269f8f6d1461087c5780632f2ff15d1461083c57806336568abe146107f6578063431f63c91461075857806354447226146101ca5780635b3a624f1461071e5780635cdcd8bb1461069957806360d6df6e14610557578063666a170e1461053957806370814374146104de57806372f39a81146103e65780638ee573ac146103a957806391d148541461035c578063a217fddf14610340578063a4ee458314610144578063b5b04096146102ae578063ceb2097114610285578063d02641a01461024b578063d1bf9cfb146101e8578063d2c8081f146101ca578063d547741f146101835763e61226851461014457600080fd5b3461017e57602036600319011261017e576001600160a01b036101656109e2565b1660005260046020526020604060002054604051908152f35b600080fd5b3461017e57604036600319011261017e576101c86004356101a26109f8565b906101c36101be82600052600060205260016040600020015490565b610b1a565b610bf1565b005b3461017e57600036600319011261017e576020600254604051908152f35b3461017e57604036600319011261017e576001600160a01b036102096109f8565b168060005260046020526040600020541561017e5760005260046020526020670de0b6b3a7640000610242604060002054600435610a46565b04604051908152f35b3461017e57602036600319011261017e576001600160a01b0361026c6109e2565b1660005260066020526020604060002054604051908152f35b3461017e57600036600319011261017e576020604051600080516020610d978339815191528152f35b3461017e57604036600319011261017e576004356001600160a01b036102d26109f8565b168060005260046020526040600020541561017e57670de0b6b3a7640000820291808304670de0b6b3a7640000149015171561032a57602091610322916000526004835260406000205490610a59565b604051908152f35b634e487b7160e01b600052601160045260246000fd5b3461017e57600036600319011261017e57602060405160008152f35b3461017e57604036600319011261017e576103756109f8565b600435600052600060205260406000209060018060a01b0316600052602052602060ff604060002054166040519015158152f35b3461017e57602036600319011261017e576001600160a01b036103ca6109e2565b166000526007602052602060ff60406000205416604051908152f35b3461017e57604036600319011261017e576001600160a01b036104076109e2565b16806000526004602052604060002054801561017e5781600052600760205260ff60406000205416918215610461575b5061044760ff9160243590610a46565b9116604d811161032a5760209161032291600a0a90610a59565b60405163313ce56760e01b8152919250602090829060049082905afa809160009161049b575b509061049257600080fd5b90610447610437565b6020813d6020116104d6575b816104b460209383610a0e565b810103126104d257519060ff821682036104cf575083610487565b80fd5b5080fd5b3d91506104a7565b3461017e57602036600319011261017e576104f76109e2565b6104ff610ac7565b61050881610c7a565b506001600160a01b03167fee089e66b4ea1c4a2f286cedb431d01bb06be2db4bf24c508cd22cc008e775ee600080a2005b3461017e57600036600319011261017e576020600354604051908152f35b3461017e57600036600319011261017e576040516000600154908160011c9160018116801561068f575b60208410811461067b57838552849291811561065c57506001146105fb575b6105ac92500382610a0e565b60405190602082528181519182602083015260005b8381106105e35750508160006040809484010152601f80199101168101030190f35b602082820181015160408784010152859350016105c1565b509060016000527fb10e2d527612073b26eecdfd717e6a320cf44b4afac2b0732d9fcbe2b7fa0cf6906000915b8183106106405750509060206105ac928201016105a0565b6020919350806001915483858801015201910190918392610628565b602092506105ac94915060ff191682840152151560051b8201016105a0565b634e487b7160e01b83526022600452602483fd5b92607f1692610581565b3461017e57604036600319011261017e576106b26109e2565b6024359060ff821680920361017e576106c9610ac7565b6001600160a01b0316801561017e5780600052600760205260406000208260ff198254161790556040519182527f421b6baf6f47d4e8a47dd26e603c36ec6bb5ae3b7ea375dee6d83f8cc0b8309660203393a3005b3461017e57602036600319011261017e576001600160a01b0361073f6109e2565b1660005260056020526020604060002054604051908152f35b3461017e57604036600319011261017e576107716109e2565b6024359061077d610a79565b6001600160a01b0316801561017e57811561017e578060005260046020528160406000205580600052600660205281604060002055806000526005602052426040600020556040519182524260208301527fd006d7efaadd9f842363572dcebe461eca100b118063d351c31ea3345a0a317460403393a3005b3461017e57604036600319011261017e5761080f6109f8565b336001600160a01b0382160361082b576101c890600435610bf1565b63334bd91960e11b60005260046000fd5b3461017e57604036600319011261017e576101c860043561085b6109f8565b906108776101be82600052600060205260016040600020015490565b610d12565b3461017e57602036600319011261017e576020670de0b6b3a7640000610242600254600435610a46565b3461017e57602036600319011261017e576020610322600435600052600060205260016040600020015490565b3461017e57602036600319011261017e576108ec6109e2565b6108f4610ac7565b6108fd81610b55565b506001600160a01b03167f776b6b77e256059acd5f5df8ea5a88d446903241acdf0c61a1f6cfc4ce55b9d8600080a2005b3461017e57602036600319011261017e5760043563ffffffff60e01b811680910361017e57602090637965db0b60e01b8114908115610973575b506040519015158152f35b6301ffc9a760e01b14905082610968565b3461017e57602036600319011261017e576004356109a0610a79565b801561017e5780600255426003556040519081524260208201527fbee563627464905fb258a311a40b6d2c2ad594dd21a58b55696a69a78c3bf69860403392a2005b600435906001600160a01b038216820361017e57565b602435906001600160a01b038216820361017e57565b90601f8019910116810190811067ffffffffffffffff821117610a3057604052565b634e487b7160e01b600052604160045260246000fd5b8181029291811591840414171561032a57565b8115610a63570490565b634e487b7160e01b600052601260045260246000fd5b336000908152600080516020610db7833981519152602052604090205460ff1615610aa057565b63e2517d3f60e01b60005233600452600080516020610d9783398151915260245260446000fd5b3360009081527fad3228b676f7d3cd4284a5443f17f1962b36e491b30a40b2405849e597ba5fb5602052604090205460ff1615610b0057565b63e2517d3f60e01b60005233600452600060245260446000fd5b60008181526020818152604080832033845290915290205460ff1615610b3d5750565b63e2517d3f60e01b6000523360045260245260446000fd5b6001600160a01b0381166000908152600080516020610db7833981519152602052604090205460ff1615610beb576001600160a01b03166000818152600080516020610db783398151915260205260408120805460ff19169055339190600080516020610d97833981519152907ff6391f5c32d9c69d2a47ea670b442974b53935d1edc7fd64eb21e047a839171b9080a4600190565b50600090565b6000818152602081815260408083206001600160a01b038616845290915290205460ff1615610c73576000818152602081815260408083206001600160a01b0395909516808452949091528120805460ff19169055339291907ff6391f5c32d9c69d2a47ea670b442974b53935d1edc7fd64eb21e047a839171b9080a4600190565b5050600090565b6001600160a01b0381166000908152600080516020610db7833981519152602052604090205460ff16610beb576001600160a01b03166000818152600080516020610db783398151915260205260408120805460ff19166001179055339190600080516020610d97833981519152907f2f8788117e7eff1d82e926ec794901d17c78024a50270940304540a733656f0d9080a4600190565b6000818152602081815260408083206001600160a01b038616845290915290205460ff16610c73576000818152602081815260408083206001600160a01b0395909516808452949091528120805460ff19166001179055339291907f2f8788117e7eff1d82e926ec794901d17c78024a50270940304540a733656f0d9080a460019056fe80a586cc4ecf40a390b370be075aa38ab3cc512c5c1a7bc1007974dbdf2663c7f3df2cad0328610bdabaaa4666352f9e79b67a748d22942cd8aec92e2fbda4b7a2646970667358221220a8d745f76590cacd6a85091ab4e0c9d240554db90d2d664f41ad305b2098e84c64736f6c634300081c00332f8788117e7eff1d82e926ec794901d17c78024a50270940304540a733656f0df3df2cad0328610bdabaaa4666352f9e79b67a748d22942cd8aec92e2fbda4b7ad3228b676f7d3cd4284a5443f17f1962b36e491b30a40b2405849e597ba5fb5",
  "linkReferences": {},
  "deployedLinkReferences": {}
}