{
  "_format": "hh-sol-artifact-1",
  "contractName": "Escrow",
  "sourceName": "contracts/Escrow.sol",
  "abi": [
    {
      "inputs": [
        {
          "internalType": "address",
          "name": "_allowedCaller",
          "type": "address"
        }
      ],
      "stateMutability": "nonpayable",
      "type": "constructor"
    },
    {
      "anonymous": false,
      "inputs": [
        {
          "indexed": true,
          "internalType": "uint256",
          "name": "orderId",
          "type": "uint256"
        },
        {
          "indexed": false,
          "internalType": "address",
          "name": "payer",
          "type": "address"
        },
        {
          "indexed": false,
          "internalType": "address",
          "name": "payee",
          "type": "address"
        },
        {
          "indexed": false,
          "internalType": "uint256",
          "name": "amount",
          "type": "uint256"
        }
      ],
      "name": "Deposited",
      "type": "event"
    },
    {
      "anonymous": false,
      "inputs": [
        {
          "indexed": true,
          "internalType": "uint256",
          "name": "orderId",
          "type": "uint256"
        },
        {
          "indexed": false,
          "internalType": "address",
          "name": "payer",
          "type": "address"
        },
        {
          "indexed": false,
          "internalType": "address",
          "name": "payee",
          "type": "address"
        },
        {
          "indexed": false,
          "internalType": "address",
          "name": "token",
          "type": "address"
        },
        {
          "indexed": false,
          "internalType": "uint256",
          "name": "amount",
          "type": "uint256"
        }
      ],
      "name": "DepositedToken",
      "type": "event"
    },
    {
      "anonymous": false,
      "inputs": [
        {
          "indexed": true,
          "internalType": "uint256",
          "name": "orderId",
          "type": "uint256"
        },
        {
          "indexed": false,
          "internalType": "address",
          "name": "to",
          "type": "address"
        },
        {
          "indexed": false,
          "internalType": "uint256",
          "name": "amount",
          "type": "uint256"
        }
      ],
      "name": "Refunded",
      "type": "event"
    },
    {
      "anonymous": false,
      "inputs": [
        {
          "indexed": true,
          "internalType": "uint256",
          "name": "orderId",
          "type": "uint256"
        },
        {
          "indexed": false,
          "internalType": "address",
          "name": "to",
          "type": "address"
        },
        {
          "indexed": false,
          "internalType": "uint256",
          "name": "amount",
          "type": "uint256"
        }
      ],
      "name": "Released",
      "type": "event"
    },
    {
      "stateMutability": "payable",
      "type": "fallback"
    },
    {
      "inputs": [],
      "name": "allowedCaller",
      "outputs": [
        {
          "internalType": "address",
          "name": "",
          "type": "address"
        }
      ],
      "stateMutability": "view",
      "type": "function"
    },
    {
      "inputs": [
        {
          "internalType": "uint256",
          "name": "orderId",
          "type": "uint256"
        },
        {
          "internalType": "address",
          "name": "payer",
          "type": "address"
        },
        {
          "internalType": "address",
          "name": "payee",
          "type": "address"
        }
      ],
      "name": "deposit",
      "outputs": [],
      "stateMutability": "payable",
      "type": "function"
    },
    {
      "inputs": [
        {
          "internalType": "uint256",
          "name": "orderId",
          "type": "uint256"
        },
        {
          "internalType": "address",
          "name": "payer",
          "type": "address"
        },
        {
          "internalType": "address",
          "name": "payee",
          "type": "address"
        },
        {
          "internalType": "address",
          "name": "token",
          "type": "address"
        },
        {
          "internalType": "uint256",
          "name": "amount",
          "type": "uint256"
        }
      ],
      "name": "depositToken",
      "outputs": [],
      "stateMutability": "nonpayable",
      "type": "function"
    },
    {
      "inputs": [
        {
          "internalType": "uint256",
          "name": "orderId",
          "type": "uint256"
        }
      ],
      "name": "getHoldAmount",
      "outputs": [
        {
          "internalType": "uint256",
          "name": "",
          "type": "uint256"
        }
      ],
      "stateMutability": "view",
      "type": "function"
    },
    {
      "inputs": [
        {
          "internalType": "uint256",
          "name": "",
          "type": "uint256"
        }
      ],
      "name": "holds",
      "outputs": [
        {
          "internalType": "uint256",
          "name": "amount",
          "type": "uint256"
        },
        {
          "internalType": "address",
          "name": "payer",
          "type": "address"
        },
        {
          "internalType": "address",
          "name": "token",
          "type": "address"
        },
        {
          "internalType": "address",
          "name": "payee",
          "type": "address"
        },
        {
          "internalType": "bool",
          "name": "releasedOrRefunded",
          "type": "bool"
        }
      ],
      "stateMutability": "view",
      "type": "function"
    },
    {
      "inputs": [
        {
          "internalType": "uint256",
          "name": "orderId",
          "type": "uint256"
        }
      ],
      "name": "refund",
      "outputs": [],
      "stateMutability": "nonpayable",
      "type": "function"
    },
    {
      "inputs": [
        {
          "internalType": "uint256",
          "name": "orderId",
          "type": "uint256"
        }
      ],
      "name": "release",
      "outputs": [],
      "stateMutability": "nonpayable",
      "type": "function"
    },
    {
      "inputs": [
        {
          "internalType": "uint256",
          "name": "orderId",
          "type": "uint256"
        },
        {
          "internalType": "address",
          "name": "oracleAddress",
          "type": "address"
        }
      ],
      "name": "releaseTokenAsUsd",
      "outputs": [],
      "stateMutability": "nonpayable",
      "type": "function"
    },
    {
      "stateMutability": "payable",
      "type": "receive"
    }
  ],
  "bytecode": "0x60a03461008d57601f610d4338819003918201601f19168301916001600160401b038311848410176100925780849260209460405283398101031261008d57516001600160a01b038116810361008d57608052604051610c9a90816100a9823960805181818161012c015281816101750152818161034801528181610523015281816107b6015261096f0152f35b600080fd5b634e487b7160e01b600052604160045260246000fdfe60806040526004361015610018575b36610c2f57610c2f565b60003560e01c806308bb9ace1461094c578063278ecde11461079c57806328c70cd8146104e05780632e2d29841461032257806337bdc99b1461015b5780633895d9381461011657806383871575146100ea5763b71b05820361000e57346100e55760203660031901126100e557600435600052600060205260a0604060002060ff815491600180851b03600182015416906003600180871b036002830154169101549160405194855260208501526040840152600180851b0381166060840152831c1615156080820152f35b600080fd5b346100e55760203660031901126100e55760043560005260006020526020604060002054604051908152f35b346100e55760003660031901126100e5576040517f00000000000000000000000000000000000000000000000000000000000000006001600160a01b03168152602090f35b346100e55760203660031901126100e5576004356101a3337f00000000000000000000000000000000000000000000000000000000000000006001600160a01b031614610aca565b80600052600060205260406000206003810190815460ff8160a01c161580610318575b6101cf90610b09565b60ff60a01b198116600160a01b17835560028201546001600160a01b031680610272575050600080808060018060a01b03865416855490828215610269575bf11561025d577f3bfce8de0db7450cc169b94323c210e69a36c6a4a58c9f5d96bec4973adce392915b549054604080516001600160a01b0390931683526020830191909152819081015b0390a2005b6040513d6000823e3d90fd5b506108fc61020e565b825460405163a9059cbb60e01b81526001600160a01b039390931660048401526024830152909290602090849060449082906000905af192831561025d577f3bfce8de0db7450cc169b94323c210e69a36c6a4a58c9f5d96bec4973adce392936102e4916000916102e9575b50610bab565b610237565b61030b915060203d602011610311575b6103038183610b71565b810190610b93565b866102de565b503d6102f9565b50815415156101c6565b60603660031901126100e557600435610339610a9e565b610341610ab4565b90610376337f00000000000000000000000000000000000000000000000000000000000000006001600160a01b031614610aca565b34156104b0577f984a71c9d95fd4794aeba33ae72edfec22053fde75488d63abef9dc69ee795af918360005260006020526040600020541580610491575b6103bd90610bef565b6104686040516103cc81610b3f565b3481526001600160a01b0384811660208084019182526000604080860182815288861660608801908152608088018481528d855294849052919092209551865592516001860180549186166001600160a01b0319928316179055905160028601805491861691909216179055905160039093018054915160ff60a01b90151560a01b16939092166001600160a81b031990911617919091179055565b604080516001600160a01b03938416815292909116602083015234908201528060608101610258565b5060008481526020819052604090206003015460a01c60ff16156103b4565b60405162461bcd60e51b81526020600482015260086024820152670f4cae4de408aa8960c31b6044820152606490fd5b346100e55760a03660031901126100e5576004356104fc610a9e565b610504610ab4565b6064356001600160a01b03811692908390036100e557608435610551337f00000000000000000000000000000000000000000000000000000000000000006001600160a01b031614610aca565b8015610763578460005260006020526040600020541580610744575b61057690610bef565b6040516323b872dd60e01b81526001600160a01b0383166004820152306024820152604481018290526020816064816000895af190811561025d57600091610725575b50156106ea577ff1a4f9a4b4645f4f88b86d2a7e624b53b06d04c7ace77262e4f9d384cf6f0782936080936106d2604051916105f483610b3f565b848352602083019560018060a01b03169586815260036040850194868652606081019360018060a01b0316958685528a820193600085528d600052600060205260406000209251835560018060a01b03905116600183019060018060a01b03166001600160601b0360a01b82541617905560018060a01b03905116600282019060018060a01b03166001600160601b0360a01b825416179055019160018060a01b039060018060a01b03905116166001600160601b0360a01b83541617825551151581549060ff60a01b90151560a01b169060ff60a01b1916179055565b604051938452602084015260408301526060820152a2005b60405162461bcd60e51b81526020600482015260136024820152721d1c985b9cd9995c919c9bdb4819985a5b1959606a1b6044820152606490fd5b61073e915060203d602011610311576103038183610b71565b866105b9565b5060008581526020819052604090206003015460a01c60ff161561056d565b60405162461bcd60e51b81526020600482015260116024820152701e995c9bc81d1bdad95b88185b5bdd5b9d607a1b6044820152606490fd5b346100e55760203660031901126100e5576004356107e4337f00000000000000000000000000000000000000000000000000000000000000006001600160a01b031614610aca565b806000526000602052604060002060038101805460ff8160a01c161580610942575b61080f90610b09565b60ff60a01b1916600160a01b17905560028101546001600160a01b0316806108aa5750600080808060018060a01b036001860154168554908282156108a1575bf11561025d577f7ca5472b7ea78c2c0141c5a12ee6d170cf4ce8ed06be3d22c8252ddfc7a6a2c4905b60018101549054604080516001600160a01b039093168352602083019190915281908101610258565b506108fc61084f565b6001820154825460405163a9059cbb60e01b81526001600160a01b03909216600483015260248201529190602090839060449082906000905af191821561025d577f7ca5472b7ea78c2c0141c5a12ee6d170cf4ce8ed06be3d22c8252ddfc7a6a2c49261091e916000916109235750610bab565b610878565b61093c915060203d602011610311576103038183610b71565b856102de565b5082541515610806565b346100e55760403660031901126100e557600435610968610a9e565b5061099d337f00000000000000000000000000000000000000000000000000000000000000006001600160a01b031614610aca565b8060005260006020526040600020600381019081549160ff8360a01c161580610a94575b6109ca90610b09565b60028201546001600160a01b03168015610a5b57600160a01b60ff60a01b198516178255825460405163a9059cbb60e01b81526001600160a01b0390951660048601526024850152602090849060449082906000905af192831561025d577f3bfce8de0db7450cc169b94323c210e69a36c6a4a58c9f5d96bec4973adce39293610237916000916102e95750610bab565b60405162461bcd60e51b81526020600482015260116024820152703737ba1030903a37b5b2b71037b93232b960791b6044820152606490fd5b50815415156109c1565b602435906001600160a01b03821682036100e557565b604435906001600160a01b03821682036100e557565b15610ad157565b60405162461bcd60e51b815260206004820152601060248201526f6f6e6c792059656d656b53657065746960801b6044820152606490fd5b15610b1057565b60405162461bcd60e51b81526020600482015260076024820152661a5b9d985b1a5960ca1b6044820152606490fd5b60a0810190811067ffffffffffffffff821117610b5b57604052565b634e487b7160e01b600052604160045260246000fd5b90601f8019910116810190811067ffffffffffffffff821117610b5b57604052565b908160209103126100e5575180151581036100e55790565b15610bb257565b60405162461bcd60e51b81526020600482015260156024820152741d1bdad95b881d1c985b9cd9995c8819985a5b1959605a1b6044820152606490fd5b15610bf657565b60405162461bcd60e51b8152602060048201526011602482015270185b1c9958591e4819195c1bdcda5d1959607a1b6044820152606490fd5b60405162461bcd60e51b815260206004820152600d60248201526c557365206465706f736974282960981b6044820152606490fdfea2646970667358221220816b0abe8c51e8b7951ae798e0c5eea7f695675fe5c93c20073808ecfe1a874164736f6c634300081c0033",
  "linkReferences": {},
  "deployedLinkReferences": {}
}