{
  "_format": "hh-sol-artifact-1",
  "contractName": "DummyOracle",
  "sourceName": "contracts/Oracle.sol",
  "abi": [
    {
      "inputs": [],
      "stateMutability": "nonpayable",
      "type": "constructor"
    },
    {
      "inputs": [],
      "name": "AccessControlBadConfirmation",
      "type": "error"
    },
    {
      "inputs": [
        {
          "internalType": "address",
          "name": "account",
          "type": "address"
        },
        {
          "internalType": "bytes32",
          "name": "neededRole",
          "type": "bytes32"
        }
      ],
      "name": "AccessControlUnauthorizedAccount",
      "type": "error"
    },
    {
      "anonymous": false,
      "inputs": [
        {
          "indexed": false,
          "internalType": "uint256",
          "name": "priceE18",
          "type": "uint256"
        },
        {
          "indexed": false,
          "internalType": "uint256",
          "name": "timestamp",
          "type": "uint256"
        },
        {
          "indexed": true,
          "internalType": "address",
          "name": "updater",
          "type": "address"
        }
      ],
      "name": "EthPriceUpdated",
      "type": "event"
    },
    {
      "anonymous": false,
      "inputs": [
        {
          "indexed": true,
          "internalType": "address",
          "name": "account",
          "type": "address"
        }
      ],
      "name": "FeederGranted",
      "type": "event"
    },
    {
      "anonymous": false,
      "inputs": [
        {
          "indexed": true,
          "internalType": "address",
          "name": "account",
          "type": "address"
        }
      ],
      "name": "FeederRevoked",
      "type": "event"
    },
    {
      "anonymous": false,
      "inputs": [
        {
          "indexed": true,
          "internalType": "bytes32",
          "name": "role",
          "type": "bytes32"
        },
        {
          "indexed": true,
          "internalType": "bytes32",
          "name": "previousAdminRole",
          "type": "bytes32"
        },
        {
          "indexed": true,
          "internalType": "bytes32",
          "name": "newAdminRole",
          "type": "bytes32"
        }
      ],
      "name": "RoleAdminChanged",
      "type": "event"
    },
    {
      "anonymous": false,
      "inputs": [
        {
          "indexed": true,
          "internalType": "bytes32",
          "name": "role",
          "type": "bytes32"
        },
        {
          "indexed": true,
          "internalType": "address",
          "name": "account",
          "type": "address"
        },
        {
          "indexed": true,
          "internalType": "address",
          "name": "sender",
          "type": "address"
        }
      ],
      "name": "RoleGranted",
      "type": "event"
    },
    {
      "anonymous": false,
      "inputs": [
        {
          "indexed": true,
          "internalType": "bytes32",
          "name": "role",
          "type": "bytes32"
        },
        {
          "indexed": true,
          "internalType": "address",
          "name": "account",
          "type": "address"
        },
        {
          "indexed": true,
          "internalType": "address",
          "name": "sender",
          "type": "address"
        }
      ],
      "name": "RoleRevoked",
      "type": "event"
    },
    {
      "anonymous": false,
      "inputs": [
        {
          "indexed": true,
          "internalType": "address",
          "name": "token",
          "type": "address"
        },
        {
          "indexed": false,
          "internalType": "uint8",
          "name": "decimals",
          "type": "uint8"
        },
        {
          "indexed": true,
          "internalType": "address",
          "name": "setter",
          "type": "address"
        }
      ],
      "name": "TokenDecimalsSet",
      "type": "event"
    },
    {
      "anonymous": false,
      "inputs": [
        {
          "indexed": true,
          "internalType": "address",
          "name": "token",
          "type": "address"
        },
        {
          "indexed": false,
          "internalType": "uint256",
          "name": "priceE18",
          "type": "uint256"
        },
        {
          "indexed": false,
          "internalType": "uint256",
          "name": "timestamp",
          "type": "uint256"
        },
        {
          "indexed": true,
          "internalType": "address",
          "name": "updater",
          "type": "address"
        }
      ],
      "name": "TokenPriceUpdated",
      "type": "event"
    },
    {
      "inputs": [],
      "name": "DEFAULT_ADMIN_ROLE",
      "outputs": [
        {
          "internalType": "bytes32",
          "name": "",
          "type": "bytes32"
        }
      ],
      "stateMutability": "view",
      "type": "function"
    },
    {
      "inputs": [],
      "name": "FEEDER_ROLE",
      "outputs": [
        {
          "internalType": "bytes32",
          "name": "",
          "type": "bytes32"
        }
      ],
      "stateMutability": "view",
      "type": "function"
    },
    {
      "inputs": [],
      "name": "_ethPriceE18",
      "outputs": [
        {
          "internalType": "uint256",
          "name": "",
          "type": "uint256"
        }
      ],
      "stateMutability": "view",
      "type": "function"
    },
    {
      "inputs": [
        {
          "internalType": "address",
          "name": "",
          "type": "address"
        }
      ],
      "name": "_tokenPriceE18",
      "outputs": [
        {
          "internalType": "uint256",
          "name": "",
          "type": "uint256"
        }
      ],
      "stateMutability": "view",
      "type": "function"
    },
    {
      "inputs": [
        {
          "internalType": "uint256",
          "name": "tokenAmount",
          "type": "uint256"
        },
        {
          "internalType": "address",
          "name": "token",
          "type": "address"
        }
      ],
      "name": "convertTokenToUsd",
      "outputs": [
        {
          "internalType": "uint256",
          "name": "",
          "type": "uint256"
        }
      ],
      "stateMutability": "view",
      "type": "function"
    },
    {
      "inputs": [
        {
          "internalType": "uint256",
          "name": "usdAmountE18",
          "type": "uint256"
        },
        {
          "internalType": "address",
          "name": "token",
          "type": "address"
        }
      ],
      "name": "convertUsdToToken",
      "outputs": [
        {
          "internalType": "uint256",
          "name": "",
          "type": "uint256"
        }
      ],
      "stateMutability": "view",
      "type": "function"
    },
    {
      "inputs": [],
      "name": "currentEthPriceE18",
      "outputs": [
        {
          "internalType": "uint256",
          "name": "",
          "type": "uint256"
        }
      ],
      "stateMutability": "view",
      "type": "function"
    },
    {
      "inputs": [
        {
          "internalType": "address",
          "name": "token",
          "type": "address"
        }
      ],
      "name": "currentTokenPriceE18",
      "outputs": [
        {
          "internalType": "uint256",
          "name": "",
          "type": "uint256"
        }
      ],
      "stateMutability": "view",
      "type": "function"
    },
    {
      "inputs": [],
      "name": "ethLastUpdatedAt",
      "outputs": [
        {
          "internalType": "uint256",
          "name": "",
          "type": "uint256"
        }
      ],
      "stateMutability": "view",
      "type": "function"
    },
    {
      "inputs": [
        {
          "internalType": "bytes32",
          "name": "role",
          "type": "bytes32"
        }
      ],
      "name": "getRoleAdmin",
      "outputs": [
        {
          "internalType": "bytes32",
          "name": "",
          "type": "bytes32"
        }
      ],
      "stateMutability": "view",
      "type": "function"
    },
    {
      "inputs": [
        {
          "internalType": "address",
          "name": "token",
          "type": "address"
        }
      ],
      "name": "getTokenPrice",
      "outputs": [
        {
          "internalType": "uint256",
          "name": "",
          "type": "uint256"
        }
      ],
      "stateMutability": "view",
      "type": "function"
    },
    {
      "inputs": [
        {
          "internalType": "address",
          "name": "account",
          "type": "address"
        }
      ],
      "name": "grantFeeder",
      "outputs": [],
      "stateMutability": "nonpayable",
      "type": "function"
    },
    {
      "inputs": [
        {
          "internalType": "bytes32",
          "name": "role",
          "type": "bytes32"
        },
        {
          "internalType": "address",
          "name": "account",
          "type": "address"
        }
      ],
      "name": "grantRole",
      "outputs": [],
      "stateMutability": "nonpayable",
      "type": "function"
    },
    {
      "inputs": [
        {
          "internalType": "bytes32",
          "name": "role",
          "type": "bytes32"
        },
        {
          "internalType": "address",
          "name": "account",
          "type": "address"
        }
      ],
      "name": "hasRole",
      "outputs": [
        {
          "internalType": "bool",
          "name": "",
          "type": "bool"
        }
      ],
      "stateMutability": "view",
      "type": "function"
    },
    {
      "inputs": [
        {
          "internalType": "uint256",
          "name": "amountWei",
          "type": "uint256"
        }
      ],
      "name": "quoteEth",
      "outputs": [
        {
          "internalType": "uint256",
          "name": "",
          "type": "uint256"
        }
      ],
      "stateMutability": "view",
      "type": "function"
    },
    {
      "inputs": [],
      "name": "quoteSymbol",
      "outputs": [
        {
          "internalType": "string",
          "name": "",
          "type": "string"
        }
      ],
      "stateMutability": "view",
      "type": "function"
    },
    {
      "inputs": [
        {
          "internalType": "address",
          "name": "token",
          "type": "address"
        },
        {
          "internalType": "uint256",
          "name": "amount",
          "type": "uint256"
        }
      ],
      "name": "quoteToken",
      "outputs": [
        {
          "internalType": "uint256",
          "name": "",
          "type": "uint256"
        }
      ],
      "stateMutability": "view",
      "type": "function"
    },
    {
      "inputs": [
        {
          "internalType": "bytes32",
          "name": "role",
          "type": "bytes32"
        },
        {
          "internalType": "address",
          "name": "callerConfirmation",
          "type": "address"
        }
      ],
      "name": "renounceRole",
      "outputs": [],
      "stateMutability": "nonpayable",
      "type": "function"
    },
    {
      "inputs": [
        {
          "internalType": "address",
          "name": "account",
          "type": "address"
        }
      ],
      "name": "revokeFeeder",
      "outputs": [],
      "stateMutability": "nonpayable",
      "type": "function"
    },
    {
      "inputs": [
        {
          "internalType": "bytes32",
          "name": "role",
          "type": "bytes32"
        },
        {
          "internalType": "address",
          "name": "account",
          "type": "address"
        }
      ],
      "name": "revokeRole",
      "outputs": [],
      "stateMutability": "nonpayable",
      "type": "function"
    },
    {
      "inputs": [
        {
          "internalType": "uint256",
          "name": "priceE18",
          "type": "uint256"
        }
      ],
      "name": "setEthPrice",
      "outputs": [],
      "stateMutability": "nonpayable",
      "type": "function"
    },
    {
      "inputs": [
        {
          "internalType": "address",
          "name": "token",
          "type": "address"
        },
        {
          "internalType": "uint8",
          "name": "decimals_",
          "type": "uint8"
        }
      ],
      "name": "setTokenDecimals",
      "outputs": [],
      "stateMutability": "nonpayable",
      "type": "function"
    },
    {
      "inputs": [
        {
          "internalType": "address",
          "name": "token",
          "type": "address"
        },
        {
          "internalType": "uint256",
          "name": "priceE18",
          "type": "uint256"
        }
      ],
      "name": "setTokenPrice",
      "outputs": [],
      "stateMutability": "nonpayable",
      "type": "function"
    },
    {
      "inputs": [
        {
          "internalType": "bytes4",
          "name": "interfaceId",
          "type": "bytes4"
        }
      ],
      "name": "supportsInterface",
      "outputs": [
        {
          "internalType": "bool",
          "name": "",
          "type": "bool"
        }
      ],
      "stateMutability": "view",
      "type": "function"
    },
    {
      "inputs": [
        {
          "internalType": "address",
          "name": "",
          "type": "address"
        }
      ],
      "name": "tokenDecimals",
      "outputs": [
        {
          "internalType": "uint8",
          "name": "",
          "type": "uint8"
        }
      ],
      "stateMutability": "view",
      "type": "function"
    },
    {
      "inputs": [
        {
          "internalType": "address",
          "name": "",
          "type": "address"
        }
      ],
      "name": "tokenLastUpdatedAt",
      "outputs": [
        {
          "internalType": "uint256",
          "name": "",
          "type": "uint256"
        }
      ],
      "stateMutability": "view",
      "type": "function"
    },
    {
      "inputs": [
        {
          "internalType": "address",
          "name": "",
          "type": "address"
        }
      ],
      "name": "tokenPrices",
      "outputs": [
        {
          "internalType": "uint256",
          "name": "",
          "type": "uint256"
        }
      ],
      "stateMutability": "view",
      "type": "function"
    }
  ],
  "bytecode": "0x6080604052346100c657600154600181811c911680156100bc575b60208210146100a657601f811161005c575b6006621554d160ea1b01600155610042336100cb565b5061004c33610147565b50604051610f4090816101e08239f35b6001600052601f0160051c7fb10e2d527612073b26eecdfd717e6a320cf44b4afac2b0732d9fcbe2b7fa0cf6908101905b81811061009a575061002c565b6000815560010161008d565b634e487b7160e01b600052602260045260246000fd5b90607f169061001a565b600080fd5b6001600160a01b0381166000908152600080516020611160833981519152602052604090205460ff16610141576001600160a01b0316600081815260008051602061116083398151915260205260408120805460ff191660011790553391906000805160206111208339815191528180a4600190565b50600090565b6001600160a01b0381166000908152600080516020611140833981519152602052604090205460ff16610141576001600160a01b0316600081815260008051602061114083398151915260205260408120805460ff191660011790553391907f80a586cc4ecf40a390b370be075aa38ab3cc512c5c1a7bc1007974dbdf2663c7906000805160206111208339815191529080a460019056fe6080604052600436101561001257600080fd5b60003560e01c80629f926214610a0557806301ffc9a7146109af57806319afd62a14610954578063204120bc14610250578063248a9ca314610927578063269f8f6d146108fd5780632f2ff15d146108bd57806336568abe14610877578063431f63c9146107cf57806354447226146101ca5780635b3a624f146107955780635cdcd8bb1461070b57806360d6df6e146105c9578063666a170e146105ab578063708143741461055057806372f39a81146103f05780638ee573ac146103b357806391d1485414610366578063a217fddf1461034a578063a4ee458314610144578063b5b04096146102b3578063ceb209711461028a578063d02641a014610250578063d1bf9cfb146101e8578063d2c8081f146101ca578063d547741f146101835763e61226851461014457600080fd5b3461017e57602036600319011261017e576001600160a01b03610165610a68565b1660005260046020526020604060002054604051908152f35b600080fd5b3461017e57604036600319011261017e576101c86004356101a2610a7e565b906101c36101be82600052600060205260016040600020015490565b610c4e565b610d25565b005b3461017e57600036600319011261017e576020600254604051908152f35b3461017e57604036600319011261017e576001600160a01b03610209610a7e565b168060005260046020526102236040600020541515610b6b565b60005260046020526020670de0b6b3a7640000610247604060002054600435610b02565b04604051908152f35b3461017e57602036600319011261017e576001600160a01b03610271610a68565b1660005260066020526020604060002054604051908152f35b3461017e57600036600319011261017e576020604051600080516020610ecb8339815191528152f35b3461017e57604036600319011261017e576004356001600160a01b036102d7610a7e565b168060005260046020526102f16040600020541515610b6b565b670de0b6b3a7640000820291808304670de0b6b3a764000014901517156103345760209161032c916000526004835260406000205490610b15565b604051908152f35b634e487b7160e01b600052601160045260246000fd5b3461017e57600036600319011261017e57602060405160008152f35b3461017e57604036600319011261017e5761037f610a7e565b600435600052600060205260406000209060018060a01b0316600052602052602060ff604060002054166040519015158152f35b3461017e57602036600319011261017e576001600160a01b036103d4610a68565b166000526007602052602060ff60406000205416604051908152f35b3461017e57604036600319011261017e576001600160a01b03610411610a68565b16806000526004602052604060002054801561051b5781600052600760205260ff6040600020541691821561046b575b5061045160ff9160243590610b02565b9116604d81116103345760209161032c91600a0a90610b15565b60405163313ce56760e01b8152919250602090829060049082905afa80916000916104d8575b50906104cf5760405162461bcd60e51b815260206004820152601060248201526f3232b1b4b6b0b639903ab735b737bbb760811b6044820152606490fd5b90610451610441565b6020813d602011610513575b816104f160209383610a94565b8101031261050f57519060ff8216820361050c575083610491565b80fd5b5080fd5b3d91506104e4565b60405162461bcd60e51b815260206004820152600d60248201526c1c1c9a58d9481b9bdd081cd95d609a1b6044820152606490fd5b3461017e57602036600319011261017e57610569610a68565b610571610bfb565b61057a81610dae565b506001600160a01b03167fee089e66b4ea1c4a2f286cedb431d01bb06be2db4bf24c508cd22cc008e775ee600080a2005b3461017e57600036600319011261017e576020600354604051908152f35b3461017e57600036600319011261017e576040516000600154908160011c91600181168015610701575b6020841081146106ed5783855284929181156106ce575060011461066d575b61061e92500382610a94565b60405190602082528181519182602083015260005b8381106106555750508160006040809484010152601f80199101168101030190f35b60208282018101516040878401015285935001610633565b509060016000527fb10e2d527612073b26eecdfd717e6a320cf44b4afac2b0732d9fcbe2b7fa0cf6906000915b8183106106b257505090602061061e92820101610612565b602091935080600191548385880101520191019091839261069a565b6020925061061e94915060ff191682840152151560051b820101610612565b634e487b7160e01b83526022600452602483fd5b92607f16926105f3565b3461017e57604036600319011261017e57610724610a68565b6024359060ff821680920361017e5761073b610bfb565b6001600160a01b031661074f811515610b35565b80600052600760205260406000208260ff198254161790556040519182527f421b6baf6f47d4e8a47dd26e603c36ec6bb5ae3b7ea375dee6d83f8cc0b8309660203393a3005b3461017e57602036600319011261017e576001600160a01b036107b6610a68565b1660005260056020526020604060002054604051908152f35b3461017e57604036600319011261017e576107e8610a68565b602435906107f4610bad565b6001600160a01b0316610808811515610b35565b610813821515610acc565b8060005260046020528160406000205580600052600660205281604060002055806000526005602052426040600020556040519182524260208301527fd006d7efaadd9f842363572dcebe461eca100b118063d351c31ea3345a0a317460403393a3005b3461017e57604036600319011261017e57610890610a7e565b336001600160a01b038216036108ac576101c890600435610d25565b63334bd91960e11b60005260046000fd5b3461017e57604036600319011261017e576101c86004356108dc610a7e565b906108f86101be82600052600060205260016040600020015490565b610e46565b3461017e57602036600319011261017e576020670de0b6b3a7640000610247600254600435610b02565b3461017e57602036600319011261017e57602061032c600435600052600060205260016040600020015490565b3461017e57602036600319011261017e5761096d610a68565b610975610bfb565b61097e81610c89565b506001600160a01b03167f776b6b77e256059acd5f5df8ea5a88d446903241acdf0c61a1f6cfc4ce55b9d8600080a2005b3461017e57602036600319011261017e5760043563ffffffff60e01b811680910361017e57602090637965db0b60e01b81149081156109f4575b506040519015158152f35b6301ffc9a760e01b149050826109e9565b3461017e57602036600319011261017e57600435610a21610bad565b610a2c811515610acc565b80600255426003556040519081524260208201527fbee563627464905fb258a311a40b6d2c2ad594dd21a58b55696a69a78c3bf69860403392a2005b600435906001600160a01b038216820361017e57565b602435906001600160a01b038216820361017e57565b90601f8019910116810190811067ffffffffffffffff821117610ab657604052565b634e487b7160e01b600052604160045260246000fd5b15610ad357565b60405162461bcd60e51b8152602060048201526007602482015266070726963653d360cc1b6044820152606490fd5b8181029291811591840414171561033457565b8115610b1f570490565b634e487b7160e01b600052601260045260246000fd5b15610b3c57565b60405162461bcd60e51b81526020600482015260076024820152660746f6b656e3d360cc1b6044820152606490fd5b15610b7257565b60405162461bcd60e51b8152602060048201526013602482015272151bdad95b881c1c9a58d9481b9bdd081cd95d606a1b6044820152606490fd5b336000908152600080516020610eeb833981519152602052604090205460ff1615610bd457565b63e2517d3f60e01b60005233600452600080516020610ecb83398151915260245260446000fd5b3360009081527fad3228b676f7d3cd4284a5443f17f1962b36e491b30a40b2405849e597ba5fb5602052604090205460ff1615610c3457565b63e2517d3f60e01b60005233600452600060245260446000fd5b60008181526020818152604080832033845290915290205460ff1615610c715750565b63e2517d3f60e01b6000523360045260245260446000fd5b6001600160a01b0381166000908152600080516020610eeb833981519152602052604090205460ff1615610d1f576001600160a01b03166000818152600080516020610eeb83398151915260205260408120805460ff19169055339190600080516020610ecb833981519152907ff6391f5c32d9c69d2a47ea670b442974b53935d1edc7fd64eb21e047a839171b9080a4600190565b50600090565b6000818152602081815260408083206001600160a01b038616845290915290205460ff1615610da7576000818152602081815260408083206001600160a01b0395909516808452949091528120805460ff19169055339291907ff6391f5c32d9c69d2a47ea670b442974b53935d1edc7fd64eb21e047a839171b9080a4600190565b5050600090565b6001600160a01b0381166000908152600080516020610eeb833981519152602052604090205460ff16610d1f576001600160a01b03166000818152600080516020610eeb83398151915260205260408120805460ff19166001179055339190600080516020610ecb833981519152907f2f8788117e7eff1d82e926ec794901d17c78024a50270940304540a733656f0d9080a4600190565b6000818152602081815260408083206001600160a01b038616845290915290205460ff16610da7576000818152602081815260408083206001600160a01b0395909516808452949091528120805460ff19166001179055339291907f2f8788117e7eff1d82e926ec794901d17c78024a50270940304540a733656f0d9080a460019056fe80a586cc4ecf40a390b370be075aa38ab3cc512c5c1a7bc1007974dbdf2663c7f3df2cad0328610bdabaaa4666352f9e79b67a748d22942cd8aec92e2fbda4b7a26469706673582212204d24ef32a8d9522ab65aed4f22a0e3c6849f7dc027b8f3a068323dc198d9a3f464736f6c634300081c00332f8788117e7eff1d82e926ec794901d17c78024a50270940304540a733656f0df3df2cad0328610bdabaaa4666352f9e79b67a748d22942cd8aec92e2fbda4b7ad3228b676f7d3cd4284a5443f17f1962b36e491b30a40b2405849e597ba5fb5",
  "linkReferences": {},
  "deployedLinkReferences": {}
}