{
  "_format": "hh-sol-artifact-1",
  "contractName": "YemekSepeti",
  "sourceName": "contracts/YemekSepeti.sol",
  "abi": [
    {
      "inputs": [],
      "stateMutability": "nonpayable",
      "type": "constructor"
    },
    {
      "inputs": [
        {
          "internalType": "address",
          "name": "owner",
          "type": "address"
        }
      ],
      "name": "OwnableInvalidOwner",
      "type": "error"
    },
    {
      "inputs": [
        {
          "internalType": "address",
          "name": "account",
          "type": "address"
        }
      ],
      "name": "OwnableUnauthorizedAccount",
      "type": "error"
    },
    {
      "anonymous": false,
      "inputs": [
        {
          "indexed": false,
          "internalType": "string",
          "name": "message",
          "type": "string"
        },
        {
          "indexed": false,
          "internalType": "uint256",
          "name": "orderId",
          "type": "uint256"
        },
        {
          "indexed": false,
          "internalType": "uint256",
          "name": "value",
          "type": "uint256"
        },
        {
          "indexed": false,
          "internalType": "address",
          "name": "sender",
          "type": "address"
        }
      ],
      "name": "Debug",
      "type": "event"
    },
    {
      "anonymous": false,
      "inputs": [
        {
          "indexed": false,
          "internalType": "string",
          "name": "message",
          "type": "string"
        },
        {
          "indexed": false,
          "internalType": "address",
          "name": "customer",
          "type": "address"
        },
        {
          "indexed": false,
          "internalType": "address",
          "name": "paymentToken",
          "type": "address"
        },
        {
          "indexed": false,
          "internalType": "uint256",
          "name": "totalAmount",
          "type": "uint256"
        }
      ],
      "name": "Debug",
      "type": "event"
    },
    {
      "anonymous": false,
      "inputs": [
        {
          "indexed": false,
          "internalType": "string",
          "name": "message",
          "type": "string"
        },
        {
          "indexed": false,
          "internalType": "uint256",
          "name": "holdAmount",
          "type": "uint256"
        }
      ],
      "name": "Debug",
      "type": "event"
    },
    {
      "anonymous": false,
      "inputs": [
        {
          "indexed": true,
          "internalType": "address",
          "name": "restaurant",
          "type": "address"
        },
        {
          "indexed": false,
          "internalType": "uint16",
          "name": "bps",
          "type": "uint16"
        }
      ],
      "name": "DefaultSlippageUpdated",
      "type": "event"
    },
    {
      "anonymous": false,
      "inputs": [
        {
          "indexed": true,
          "internalType": "address",
          "name": "restaurant",
          "type": "address"
        },
        {
          "indexed": false,
          "internalType": "string",
          "name": "item",
          "type": "string"
        },
        {
          "indexed": false,
          "internalType": "uint16",
          "name": "bps",
          "type": "uint16"
        }
      ],
      "name": "ItemSlippageUpdated",
      "type": "event"
    },
    {
      "anonymous": false,
      "inputs": [
        {
          "indexed": true,
          "internalType": "uint256",
          "name": "orderId",
          "type": "uint256"
        }
      ],
      "name": "OrderCancelled",
      "type": "event"
    },
    {
      "anonymous": false,
      "inputs": [
        {
          "indexed": true,
          "internalType": "uint256",
          "name": "orderId",
          "type": "uint256"
        }
      ],
      "name": "OrderConfirmed",
      "type": "event"
    },
    {
      "anonymous": false,
      "inputs": [
        {
          "indexed": true,
          "internalType": "uint256",
          "name": "orderId",
          "type": "uint256"
        },
        {
          "indexed": true,
          "internalType": "address",
          "name": "customer",
          "type": "address"
        },
        {
          "indexed": true,
          "internalType": "address",
          "name": "restaurant",
          "type": "address"
        },
        {
          "indexed": false,
          "internalType": "string",
          "name": "itemName",
          "type": "string"
        }
      ],
      "name": "OrderCreated",
      "type": "event"
    },
    {
      "anonymous": false,
      "inputs": [
        {
          "indexed": true,
          "internalType": "uint256",
          "name": "orderId",
          "type": "uint256"
        },
        {
          "indexed": false,
          "internalType": "enum YemekSepeti.OrderStatus",
          "name": "newStatus",
          "type": "uint8"
        }
      ],
      "name": "OrderStatusUpdated",
      "type": "event"
    },
    {
      "anonymous": false,
      "inputs": [
        {
          "indexed": true,
          "internalType": "address",
          "name": "previousOwner",
          "type": "address"
        },
        {
          "indexed": true,
          "internalType": "address",
          "name": "newOwner",
          "type": "address"
        }
      ],
      "name": "OwnershipTransferred",
      "type": "event"
    },
    {
      "stateMutability": "payable",
      "type": "fallback"
    },
    {
      "inputs": [],
      "name": "getTotalOrders",
      "outputs": [
        {
          "internalType": "uint256",
          "name": "",
          "type": "uint256"
        }
      ],
      "stateMutability": "view",
      "type": "function"
    },
    {
      "inputs": [],
      "name": "orderCount",
      "outputs": [
        {
          "internalType": "uint256",
          "name": "",
          "type": "uint256"
        }
      ],
      "stateMutability": "view",
      "type": "function"
    },
    {
      "inputs": [
        {
          "internalType": "uint256",
          "name": "_orderId",
          "type": "uint256"
        }
      ],
      "name": "cancelOrderAndRefund",
      "outputs": [],
      "stateMutability": "nonpayable",
      "type": "function"
    },
    {
      "inputs": [
        {
          "internalType": "uint256",
          "name": "_orderId",
          "type": "uint256"
        }
      ],
      "name": "confirmOrder",
      "outputs": [],
      "stateMutability": "payable",
      "type": "function"
    },
    {
      "inputs": [
        {
          "internalType": "address",
          "name": "_restaurant",
          "type": "address"
        },
        {
          "internalType": "string[]",
          "name": "_items",
          "type": "string[]"
        },
        {
          "internalType": "uint256[]",
          "name": "_qtys",
          "type": "uint256[]"
        }
      ],
      "name": "createOrderETHDynamicMany",
      "outputs": [],
      "stateMutability": "payable",
      "type": "function"
    },
    {
      "inputs": [
        {
          "internalType": "address",
          "name": "_restaurant",
          "type": "address"
        },
        {
          "internalType": "string[]",
          "name": "_items",
          "type": "string[]"
        },
        {
          "internalType": "uint256[]",
          "name": "_qtys",
          "type": "uint256[]"
        },
        {
          "internalType": "address",
          "name": "_token",
          "type": "address"
        },
        {
          "internalType": "uint256",
          "name": "_tokenAmount",
          "type": "uint256"
        }
      ],
      "name": "createOrderTokenDynamicMany",
      "outputs": [],
      "stateMutability": "nonpayable",
      "type": "function"
    },
    {
      "inputs": [
        {
          "internalType": "address",
          "name": "_restaurant",
          "type": "address"
        },
        {
          "internalType": "string[]",
          "name": "_items",
          "type": "string[]"
        },
        {
          "internalType": "uint256[]",
          "name": "_qtys",
          "type": "uint256[]"
        },
        {
          "internalType": "address",
          "name": "_token",
          "type": "address"
        }
      ],
      "name": "createOrderUsdToToken",
      "outputs": [],
      "stateMutability": "nonpayable",
      "type": "function"
    },
    {
      "inputs": [
        {
          "internalType": "address",
          "name": "",
          "type": "address"
        }
      ],
      "name": "customers",
      "outputs": [
        {
          "internalType": "address",
          "name": "walletAddress",
          "type": "address"
        },
        {
          "internalType": "string",
          "name": "realWorldAddress",
          "type": "string"
        }
      ],
      "stateMutability": "view",
      "type": "function"
    },
    {
      "inputs": [],
      "name": "escrow",
      "outputs": [
        {
          "internalType": "contract IEscrow",
          "name": "",
          "type": "address"
        }
      ],
      "stateMutability": "view",
      "type": "function"
    },
    {
      "inputs": [
        {
          "internalType": "address",
          "name": "_restaurant",
          "type": "address"
        },
        {
          "internalType": "string",
          "name": "_item",
          "type": "string"
        }
      ],
      "name": "getMenuPriceQuote",
      "outputs": [
        {
          "internalType": "uint256",
          "name": "priceUSD",
          "type": "uint256"
        },
        {
          "internalType": "uint8",
          "name": "decimals",
          "type": "uint8"
        }
      ],
      "stateMutability": "view",
      "type": "function"
    },
    {
      "inputs": [
        {
          "internalType": "uint256",
          "name": "_orderId",
          "type": "uint256"
        }
      ],
      "name": "getOrder",
      "outputs": [
        {
          "internalType": "address",
          "name": "customer",
          "type": "address"
        },
        {
          "internalType": "address",
          "name": "restaurant",
          "type": "address"
        },
        {
          "internalType": "string",
          "name": "itemName",
          "type": "string"
        },
        {
          "internalType": "uint256",
          "name": "price",
          "type": "uint256"
        },
        {
          "internalType": "enum YemekSepeti.OrderStatus",
          "name": "status",
          "type": "uint8"
        }
      ],
      "stateMutability": "view",
      "type": "function"
    },
    {
      "inputs": [
        {
          "internalType": "uint256",
          "name": "_orderId",
          "type": "uint256"
        }
      ],
      "name": "getOrderDetails",
      "outputs": [
        {
          "internalType": "address",
          "name": "customer",
          "type": "address"
        },
        {
          "internalType": "address",
          "name": "restaurant",
          "type": "address"
        },
        {
          "internalType": "string",
          "name": "itemName",
          "type": "string"
        },
        {
          "internalType": "uint256",
          "name": "price",
          "type": "uint256"
        },
        {
          "internalType": "address",
          "name": "paymentToken",
          "type": "address"
        },
        {
          "internalType": "enum YemekSepeti.OrderStatus",
          "name": "status",
          "type": "uint8"
        }
      ],
      "stateMutability": "view",
      "type": "function"
    },
    {
      "inputs": [
        {
          "internalType": "uint256",
          "name": "_orderId",
          "type": "uint256"
        },
        {
          "internalType": "uint256",
          "name": "index",
          "type": "uint256"
        }
      ],
      "name": "getOrderItem",
      "outputs": [
        {
          "internalType": "string",
          "name": "name",
          "type": "string"
        },
        {
          "internalType": "uint256",
          "name": "qty",
          "type": "uint256"
        },
        {
          "internalType": "uint256",
          "name": "amount",
          "type": "uint256"
        }
      ],
      "stateMutability": "view",
      "type": "function"
    },
    {
      "inputs": [
        {
          "internalType": "uint256",
          "name": "_orderId",
          "type": "uint256"
        }
      ],
      "name": "getOrderItems",
      "outputs": [
        {
          "components": [
            {
              "internalType": "string",
              "name": "name",
              "type": "string"
            },
            {
              "internalType": "uint256",
              "name": "qty",
              "type": "uint256"
            },
            {
              "internalType": "uint256",
              "name": "amount",
              "type": "uint256"
            }
          ],
          "internalType": "struct YemekSepeti.OrderItem[]",
          "name": "",
          "type": "tuple[]"
        }
      ],
      "stateMutability": "view",
      "type": "function"
    },
    {
      "inputs": [
        {
          "internalType": "uint256",
          "name": "_orderId",
          "type": "uint256"
        }
      ],
      "name": "getOrderItemsCount",
      "outputs": [
        {
          "internalType": "uint256",
          "name": "",
          "type": "uint256"
        }
      ],
      "stateMutability": "view",
      "type": "function"
    },
    {
      "inputs": [
        {
          "internalType": "address",
          "name": "_restaurant",
          "type": "address"
        },
        {
          "internalType": "string",
          "name": "_item",
          "type": "string"
        },
        {
          "internalType": "address",
          "name": "_payToken",
          "type": "address"
        }
      ],
      "name": "getRequiredPayment",
      "outputs": [
        {
          "internalType": "uint256",
          "name": "",
          "type": "uint256"
        }
      ],
      "stateMutability": "view",
      "type": "function"
    },
    {
      "inputs": [
        {
          "internalType": "address",
          "name": "_restaurant",
          "type": "address"
        },
        {
          "internalType": "string[]",
          "name": "_items",
          "type": "string[]"
        },
        {
          "internalType": "uint256[]",
          "name": "_qtys",
          "type": "uint256[]"
        },
        {
          "internalType": "address",
          "name": "_payToken",
          "type": "address"
        }
      ],
      "name": "getRequiredPaymentMany",
      "outputs": [
        {
          "internalType": "uint256",
          "name": "totalAmount",
          "type": "uint256"
        },
        {
          "internalType": "enum PriceMode",
          "name": "mode",
          "type": "uint8"
        }
      ],
      "stateMutability": "view",
      "type": "function"
    },
    {
      "inputs": [
        {
          "internalType": "address",
          "name": "_restaurant",
          "type": "address"
        }
      ],
      "name": "getRestaurantInfo",
      "outputs": [
        {
          "internalType": "address",
          "name": "walletAddress",
          "type": "address"
        },
        {
          "internalType": "string",
          "name": "realWorldAddress",
          "type": "string"
        },
        {
          "internalType": "uint16",
          "name": "defaultSlippageBps",
          "type": "uint16"
        }
      ],
      "stateMutability": "view",
      "type": "function"
    },
    {
      "inputs": [
        {
          "internalType": "address",
          "name": "_restaurant",
          "type": "address"
        }
      ],
      "name": "getRestaurantOrders",
      "outputs": [
        {
          "internalType": "uint256[]",
          "name": "",
          "type": "uint256[]"
        }
      ],
      "stateMutability": "view",
      "type": "function"
    },
    {
      "inputs": [
        {
          "internalType": "address",
          "name": "_restaurant",
          "type": "address"
        },
        {
          "internalType": "string",
          "name": "_item",
          "type": "string"
        },
        {
          "internalType": "address",
          "name": "_token",
          "type": "address"
        }
      ],
      "name": "isTokenAccepted",
      "outputs": [
        {
          "internalType": "bool",
          "name": "",
          "type": "bool"
        }
      ],
      "stateMutability": "view",
      "type": "function"
    },
    {
      "inputs": [],
      "name": "oracle",
      "outputs": [
        {
          "internalType": "contract IOracle",
          "name": "",
          "type": "address"
        }
      ],
      "stateMutability": "view",
      "type": "function"
    },
    {
      "inputs": [],
      "name": "orderCounter",
      "outputs": [
        {
          "internalType": "uint256",
          "name": "",
          "type": "uint256"
        }
      ],
      "stateMutability": "view",
      "type": "function"
    },
    {
      "inputs": [
        {
          "internalType": "uint256",
          "name": "",
          "type": "uint256"
        },
        {
          "internalType": "uint256",
          "name": "",
          "type": "uint256"
        }
      ],
      "name": "orderItems",
      "outputs": [
        {
          "internalType": "string",
          "name": "name",
          "type": "string"
        },
        {
          "internalType": "uint256",
          "name": "qty",
          "type": "uint256"
        },
        {
          "internalType": "uint256",
          "name": "amount",
          "type": "uint256"
        }
      ],
      "stateMutability": "view",
      "type": "function"
    },
    {
      "inputs": [
        {
          "internalType": "uint256",
          "name": "",
          "type": "uint256"
        }
      ],
      "name": "orders",
      "outputs": [
        {
          "internalType": "uint256",
          "name": "id",
          "type": "uint256"
        },
        {
          "internalType": "address",
          "name": "customer",
          "type": "address"
        },
        {
          "internalType": "address",
          "name": "restaurant",
          "type": "address"
        },
        {
          "internalType": "string",
          "name": "itemName",
          "type": "string"
        },
        {
          "internalType": "uint256",
          "name": "price",
          "type": "uint256"
        },
        {
          "internalType": "address",
          "name": "paymentToken",
          "type": "address"
        },
        {
          "internalType": "enum YemekSepeti.OrderStatus",
          "name": "status",
          "type": "uint8"
        }
      ],
      "stateMutability": "view",
      "type": "function"
    },
    {
      "inputs": [],
      "name": "owner",
      "outputs": [
        {
          "internalType": "address",
          "name": "",
          "type": "address"
        }
      ],
      "stateMutability": "view",
      "type": "function"
    },
    {
      "inputs": [
        {
          "internalType": "string",
          "name": "_realWorldAddress",
          "type": "string"
        }
      ],
      "name": "registerCustomer",
      "outputs": [],
      "stateMutability": "nonpayable",
      "type": "function"
    },
    {
      "inputs": [
        {
          "internalType": "string",
          "name": "_realWorldAddress",
          "type": "string"
        }
      ],
      "name": "registerRestaurant",
      "outputs": [],
      "stateMutability": "nonpayable",
      "type": "function"
    },
    {
      "inputs": [],
      "name": "renounceOwnership",
      "outputs": [],
      "stateMutability": "nonpayable",
      "type": "function"
    },
    {
      "inputs": [
        {
          "internalType": "address",
          "name": "",
          "type": "address"
        }
      ],
      "name": "restaurants",
      "outputs": [
        {
          "internalType": "address",
          "name": "walletAddress",
          "type": "address"
        },
        {
          "internalType": "string",
          "name": "realWorldAddress",
          "type": "string"
        },
        {
          "internalType": "uint16",
          "name": "defaultSlippageBps",
          "type": "uint16"
        }
      ],
      "stateMutability": "view",
      "type": "function"
    },
    {
      "inputs": [
        {
          "internalType": "string",
          "name": "_item",
          "type": "string"
        },
        {
          "internalType": "address",
          "name": "_token",
          "type": "address"
        },
        {
          "internalType": "bool",
          "name": "_ok",
          "type": "bool"
        }
      ],
      "name": "setAcceptedToken",
      "outputs": [],
      "stateMutability": "nonpayable",
      "type": "function"
    },
    {
      "inputs": [
        {
          "internalType": "uint16",
          "name": "bps",
          "type": "uint16"
        }
      ],
      "name": "setDefaultSlippageBps",
      "outputs": [],
      "stateMutability": "nonpayable",
      "type": "function"
    },
    {
      "inputs": [
        {
          "internalType": "address",
          "name": "_escrow",
          "type": "address"
        }
      ],
      "name": "setEscrow",
      "outputs": [],
      "stateMutability": "nonpayable",
      "type": "function"
    },
    {
      "inputs": [
        {
          "internalType": "string",
          "name": "_item",
          "type": "string"
        },
        {
          "internalType": "uint16",
          "name": "bps",
          "type": "uint16"
        }
      ],
      "name": "setItemSlippageBps",
      "outputs": [],
      "stateMutability": "nonpayable",
      "type": "function"
    },
    {
      "inputs": [
        {
          "internalType": "string",
          "name": "_item",
          "type": "string"
        },
        {
          "internalType": "uint256",
          "name": "_price",
          "type": "uint256"
        },
        {
          "internalType": "uint8",
          "name": "_quoteDecimals",
          "type": "uint8"
        }
      ],
      "name": "setMenuPriceQuote",
      "outputs": [],
      "stateMutability": "nonpayable",
      "type": "function"
    },
    {
      "inputs": [
        {
          "internalType": "address",
          "name": "_oracle",
          "type": "address"
        }
      ],
      "name": "setOracle",
      "outputs": [],
      "stateMutability": "nonpayable",
      "type": "function"
    },
    {
      "inputs": [
        {
          "internalType": "address",
          "name": "newOwner",
          "type": "address"
        }
      ],
      "name": "transferOwnership",
      "outputs": [],
      "stateMutability": "nonpayable",
      "type": "function"
    },
    {
      "inputs": [
        {
          "internalType": "uint256",
          "name": "_orderId",
          "type": "uint256"
        },
        {
          "internalType": "enum YemekSepeti.OrderStatus",
          "name": "_newStatus",
          "type": "uint8"
        }
      ],
      "name": "updateOrderStatus",
      "outputs": [],
      "stateMutability": "nonpayable",
      "type": "function"
    },
    {
      "stateMutability": "payable",
      "type": "receive"
    }
  ],
  "bytecode": "0x608080604052346075573315605f5760008054336001600160a01b0319821681178355916001600160a01b03909116907f8be0079c531659141344cd1fd0a4f28419497f9722a3daafe3b4186f6b6457e09080a36139b1908161007b8239f35b631e4fbdf760e01b600052600060045260246000fd5b600080fdfe60806040526004361015610018575b3661390d5761390d565b60003560e01c80630bf7d3c1146102585780631378d80614610253578063215b71051461024e578063236cd7dc146102495780632b5e21da14610244578063336989ae1461023f57806337edfa421461023a578063460d63a6146102355780634fd7e99714610230578063514fcac71461022b5780635aa6c7dd1461022657806370fc576a14610221578063715018a61461021c5780637a0c587c146102175780637adbf973146102125780637dc0d1d01461020d5780637e281629146102085780638ac7d79c146102035780638da5cb5b146101fe578063a3b45a2a146101f9578063a85c38ef146101f4578063a8c80055146101ef578063aab3196d146101ea578063afde9192146101e5578063b59cda8d146101e0578063b68031fc146101db578063b789bf52146101d6578063b7e9c0cf146101d1578063c10c3546146101cc578063d09ef241146101c7578063d64824db146101c2578063df0d449e146101bd578063e2fdcc17146101b8578063ec7dd7bb146101b3578063f2fde38b146101ae5763fb13e2eb0361000e576129bf565b6128b9565b612835565b6127be565b612763565b6126d3565b61266c565b61255b565b612480565b612462565b612436565b612081565b612003565b611f08565b611e1f565b611d1b565b611bf2565b611bc9565b6117e7565b611463565b61143a565b6113bb565b611317565b6112be565b610e9a565b610d9d565b610c04565b610b36565b610a95565b610a04565b610949565b61085d565b6107dc565b610638565b61049b565b610363565b634e487b7160e01b600052604160045260246000fd5b604081019081106001600160401b0382111761028e57604052565b61025d565b606081019081106001600160401b0382111761028e57604052565b90601f801991011681019081106001600160401b0382111761028e57604052565b604051906102de60e0836102ae565b565b604051906102de6060836102ae565b9291926001600160401b03821161028e5760405191610318601f8201601f1916602001846102ae565b829481845281830111610335578281602093846000960137010152565b600080fd5b9080601f8301121561033557816020610355933591016102ef565b90565b60ff81160361033557565b34610335576060366003190112610335576004356001600160401b0381116103355761039390369060040161033a565b6044356024356103a282610358565b336000908152600760205260409020546103c6906001600160a01b03161515612a79565b6103d283511515612ac5565b80156104385761043692610427916103f0601260ff86161115612afe565b33600090815260076020526040902061040c9060020183612b34565b553360009081526007602052604090206003905b0190612b34565b9060ff1660ff19825416179055565b005b60405162461bcd60e51b815260206004820152601160248201527005072696365206d757374206265203e203607c1b6044820152606490fd5b602060031982011261033557600435906001600160401b038211610335576103559160040161033a565b34610335576104a936610471565b60016040516104b781610273565b338152602081019283523360005260066020526104fe604060002091838060a01b03905116829060018060a01b03166bffffffffffffffffffffffff60a01b825416179055565b0190519081516001600160401b03811161028e576105268161052084546106d0565b84612b5a565b602092601f8211600114610567576105589293829160009261055c575b50508160011b916000199060031b1c19161790565b9055005b015190503880610543565b601f1982169361057c84600052602060002090565b9160005b8681106105b6575083600195961061059d575b505050811b019055005b015160001960f88460031b161c19169055388080610593565b91926020600181928685015181550194019201610580565b60005b8381106105e15750506000910152565b81810151838201526020016105d1565b9060209161060a815180928185528580860191016105ce565b601f01601f1916010190565b61062e604092959493956060835260608301906105f1565b9460208201520152565b34610335576040366003190112610335576106656004356024359060005260046020526040600020612747565b5060018101549061068a61067d60028301549261070a565b9160405193849384610616565b0390f35b600435906001600160a01b038216820361033557565b602435906001600160a01b038216820361033557565b606435906001600160a01b038216820361033557565b90600182811c92168015610700575b60208310146106ea57565b634e487b7160e01b600052602260045260246000fd5b91607f16916106df565b906040519182600082549261071e846106d0565b808452936001811690811561078a5750600114610743575b506102de925003836102ae565b90506000929192526020600020906000915b81831061076e5750509060206102de9282010138610736565b6020919350806001915483858901015201910190918492610755565b9050602092506102de94915060ff191682840152151560051b82010138610736565b916107d561ffff9160409396959660018060a01b031685526060602086015260608501906105f1565b9416910152565b34610335576020366003190112610335576001600160a01b036107fd61068e565b16600090815260076020526040902080546001600160a01b031661068a61ffff600561082b6001860161070a565b94015416604051938493846107ac565b6024359061ffff8216820361033557565b6004359061ffff8216820361033557565b34610335576040366003190112610335576004356001600160401b0381116103355761088d90369060040161033a565b7ff0a8d656ef6685f9ce0cf72aadde3a2e8d037e6d6823a57588f5cabee5f6d88a6108b661083b565b913360005260076020526108d860018060a01b03604060002054161515612a79565b6108e481511515612ac5565b61092661ffff8416936108fb6107d0861115612bac565b336000526007602052610915600660406000200184612b34565b9061ffff1661ffff19825416179055565b61093b604051916040835260408301906105f1565b9260208201528033930390a2005b34610335576020366003190112610335576001600160a01b0361096a61068e565b16600090815260066020526040902080546001600160a01b0316906109919060010161070a565b9061068a60405192839283526040602084015260408301906105f1565b906060600319830112610335576004356001600160a01b03811681036103355791602435906001600160401b038211610335576109ed9160040161033a565b906044356001600160a01b03811681036103355790565b3461033557610a12366109ae565b906040918251610a2284826102ae565b60018152601f19840160005b818110610a84575050610a3f612beb565b90805115610a7f5761068a95610a6f946020830152610a5d82612c3f565b506001610a6984612c3f565b52613564565b5090519081529081906020820190565b612731565b806060602080938601015201610a2e565b3461033557602060ff610af0610ad9610aad366109ae565b6001600160a01b0392831660009081526007885260409020805491949360049261042091161515612c60565b9060018060a01b0316600052602052604060002090565b54166040519015158152f35b602060408183019282815284518094520192019060005b818110610b205750505090565b8251845260209384019390920191600101610b13565b34610335576020366003190112610335576001600160a01b03610b5761068e565b16600081815260076020526040902054610b7b906001600160a01b03161515612c60565b600354610b8781612c0d565b9060009060005b818110610ba6578284526040518061068a8682610afc565b8460018060a01b03610bd56002610bc7856000526005602052604060002090565b01546001600160a01b031690565b1614610be4575b600101610b8e565b91610bfc8184610bf660019488612c4c565b52612cc2565b929050610bdc565b3461033557602036600319011261033557600435610c90610c706005610c34846000526005602052604060002090565b6001810154610c53906001600160a01b03165b6001600160a01b031690565b33148015610d78575b610c6590612cd6565b015460a01c60ff1690565b610c7981611cac565b8015908115610d63575b8115610d4f575b50612d31565b610cbd6005610ca9836000526005602052604060002090565b01805460ff60a01b1916600160a21b179055565b600154610cd2906001600160a01b0316610c47565b803b156103355760405163278ecde160e01b815260048101839052906000908290602490829084905af18015610d4a57610d2f575b507f61b9399f2f0f32ca39ce8d7be32caed5ec22fe07a6daba3a467ed479ec606582600080a2005b80610d3e6000610d44936102ae565b806112b3565b38610d07565b612dac565b60059150610d5c81611cac565b1438610c8a565b9050610d6e81611cac565b6001811490610c83565b506002810154610c6590610d94906001600160a01b0316610c47565b33149050610c5c565b3461033557610dab36610471565b33600081815260076020526040902080546001600160a01b031916909117815560010181516001600160401b03811161028e57610dec8161052084546106d0565b602092601f8211600114610e1d576105589293829160009261055c5750508160011b916000199060031b1c19161790565b601f19821693610e3284600052602060002090565b9160005b868110610e52575083600195961061059d57505050811b019055005b91926020600181928685015181550194019201610e36565b9181601f84011215610335578235916001600160401b038311610335576020808501948460051b01011161033557565b606036600319011261033557610eae61068e565b6024356001600160401b03811161033557610ecd903690600401610e6a565b916044356001600160401b03811161033557610eed903690600401610e6a565b92336000526006602052610f0f60018060a01b03604060002054161515612db8565b838514806112aa575b610f2190612e04565b6001600160a01b03831660009081526007602052604090208054610f53906001600160a01b039081165b161515612e3e565b600254610f6a90610c47906001600160a01b031681565b610f75811515612e7f565b60009160009060036002820191015b88868b80861061120d5750600495602095506001600160a01b03169350610faa92505050565b60405163d2c8081f60e01b815292839182905afa8015610d4a5761101e92610fee926000926111d8575b50610fe990610fe4831515613003565b612f62565b613043565b61100d61100061100761100084612f86565b6064900490565b92612f9c565b9034101590816111cd575b50613063565b6003549361103361102e86612cc2565b600355565b61109061103e6102cf565b8681523360208201526001600160a01b038616604082015261105e6130c4565b6060820152346080820152600060a0820152600060c082015261108b876000526005602052604060002090565b6130e7565b60005b86811061115557600154869086906110b3906001600160a01b0316610c47565b803b1561033557604051630b8b4a6160e21b8152600481018490523360248201526001600160a01b0383166044820152906000908290606490829034905af18015610d4a57611140575b506040516001600160a01b039091169133917fe3f4f7fc5607c6ab42a1ec9a7537ede8a0731377be155565f5f20c1fa298f449908061113b8161336c565b0390a4005b80610d3e600061114f936102ae565b826110fd565b6001906111c761116f886000526004602052604060002090565b61117a838b88612ebc565b9190886111b66111a589610fe961119e8a8361119782828a612f52565b3597612f52565b3534612fb2565b926111ae6102e0565b9536916102ef565b845260208401526040830152613249565b01611093565b905034111538611018565b610fe99192506111ff9060203d602011611206575b6111f781836102ae565b810190612ff4565b9190610fd4565b503d6111ed565b61129892828761124e6112478861123a849e989c886112408e9f9e60019e9f846112929d61123a92612ebc565b90612efd565b5497612ebc565b5460ff1690565b928d60ff8516156112a1575b9261127a611287936112819361128c96611275851515612f16565b612f52565b3590612fb2565b92612fc5565b612fd6565b90612fb2565b90612fe7565b94019190610f84565b6012945061125a565b50841515610f18565b600091031261033557565b34610335576000366003190112610335576112d7613952565b600080546001600160a01b0319811682556001600160a01b03167f8be0079c531659141344cd1fd0a4f28419497f9722a3daafe3b4186f6b6457e08280a3005b34610335576060366003190112610335576004356001600160401b0381116103355761134790369060040161033a565b61134f6106a4565b906044359182151580930361033557610ad96113a99233600052600760205261138660018060a01b03604060002054161515612a79565b61139281511515612ac5565b336000526007602052600460406000200190612b34565b9060ff80198354169116179055600080f35b34610335576020366003190112610335576113d461068e565b6113dc613952565b6001600160a01b03168015611408576bffffffffffffffffffffffff60a01b6002541617600255600080f35b60405162461bcd60e51b815260206004820152600a602482015269626164206f7261636c6560b01b6044820152606490fd5b34610335576000366003190112610335576002546040516001600160a01b039091168152602090f35b346103355760803660031901126103355761147c61068e565b6024356001600160401b0381116103355761149b903690600401610e6a565b916044356001600160401b038111610335576114bb903690600401610e6a565b9390926114c66106ba565b933360005260066020526114e860018060a01b03604060002054161515612db8565b858314806117de575b6114fa90612e04565b6001600160a01b03848116600090815260076020526040902080548792611522918116610f4b565b60025461153990610c47906001600160a01b031681565b611544811515612e7f565b60009160009060036002820191015b8b888a80861061177c575050505050509160209161157a6115ae959460018060a01b031690565b604051635ad8204b60e11b815260048101929092526001600160a01b03909216602482015293849190829081906044820190565b03915afa918215610d4a5760009261175b575b506115cd82151561338c565b600354956115dd61102e88612cc2565b61163e6115e86102cf565b8881523360208201526001600160a01b03881660408201526116086130c4565b6060820152608081018590526001600160a01b03831660a0820152600060c082015261108b896000526005602052604060002090565b600154611653906001600160a01b0316610c47565b803b1561033557604051630518e19b60e31b8152600481018990523360248201526001600160a01b03888116604483015292909216606483015260848201849052600090829060a490829084905af18015610d4a57611746575b5060005b8481106116f6576040516001600160a01b03871690339089907fe3f4f7fc5607c6ab42a1ec9a7537ede8a0731377be155565f5f20c1fa298f449908061113b8161336c565b6001906117406111a56117138a6000526004602052604060002090565b8b866111b6611723878d8d612ebc565b959093610fe96117398a8361119782828a612f52565b358d612fb2565b016116b1565b80610d3e6000611755936102ae565b386116ad565b61177591925060203d602011611206576111f781836102ae565b90386115c1565b8598509181866117ab6112478761123a84898c9e9f9a60019d6117d19d9f61123a90611240936112929e612ebc565b928c60ff8516156112a1579261127a611287936112819361128c96611275851515612f16565b9401909189949392611553565b508215156114f1565b60203660031901126103355760043580600052600560205261181a60018060a01b036002604060002001541633146133d8565b80600052600560205260ff60056040600020015460a01c166006811015611bc457611845901561341b565b6040805160808082526013908201527218dbdb999a5c9b53dc99195c8818d85b1b1959606a1b60a08201526020810183905234918101919091523360608201527f8f42520a52b1549dfb4b380e198023c1a79e521f69ba335b1fc61cd4ed8e22a79060c090a16118bf816000526005602052604060002090565b6001810154600582018054600490930154604080516080808252600d908201526c4f726465722064657461696c7360981b60a08201526001600160a01b039485166020820152939094169383019390935260608201929092527fcb3aa6184104a2052daa5683aac1b3d0ac687ee4f6a2f9e000bac1360e3222489060c090a1600154611953906001600160a01b0316610c47565b604051638387157560e01b8152600481018490529190602090839060249082905afa918215610d4a57600092611ba3575b507f3c5ad147104e56be34a9176a6692f7df8d2f4b29a5af06bc6b98970d329d6577604051806119ed8582919060408352601760408401527f486f6c6420616d6f756e742066726f6d20657363726f770000000000000000006060840152602060808401930152565b0390a1611a1d6005611a09856000526005602052604060002090565b01805460ff60a01b1916600160a01b179055565b600154611a32906001600160a01b0316610c47565b90813b15610335576040516337bdc99b60e01b815260048101859052916000908390602490829084905af1918215610d4a57611a7b92611b8e575b50546001600160a01b031690565b6001600160a01b0381161580611b85575b15611b1f5750611a9e81341015613473565b8060008115611b16575b600080809381933390f115610d4a57803411611ae8575b505b7faf50e0923cf2eedda3dc56c3d4d73b4d920cee133cd920ffb873db233abecb0c600080a2005b60008080611af78194346134bf565b818115611b0d575b3390f115610d4a5738611abf565b506108fc611aff565b506108fc611aa8565b6001600160a01b031615159081611b7b575b5015611b6d5734158015611b46575b50611ac1565b600090611b64575b60008080809334903390f115610d4a5738611b40565b506108fc611b4e565b34158015611b465750611ac1565b9050151538611b31565b50811515611a8c565b80610d3e6000611b9d936102ae565b38611a6d565b611bbd91925060203d602011611206576111f781836102ae565b9038611984565b611c96565b34610335576000366003190112610335576000546040516001600160a01b039091168152602090f35b3461033557602036600319011261033557611c0b61084c565b33600090815260076020526040902054611c2f906001600160a01b03161515612a79565b611c6861ffff821691611c466107d0841115612bac565b33600052600760205260056040600020019061ffff1661ffff19825416179055565b6040519081527f830c27cbc8cb6e5a63c17db2bbc34134a92b4ba8cf4167270ce9fbc68639e0b060203392a2005b634e487b7160e01b600052602160045260246000fd5b60061115611bc457565b906006821015611bc45752565b9081526001600160a01b0391821660208201529116604082015260e0606082018190529295946102de94909360c093611cfe918401906105f1565b60808301979097526001600160a01b031660a08201520190611cb6565b346103355760203660031901126103355760043560009081526005602052604090208054600182015460028301546001600160a01b039081169391169161068a9190611d696003830161070a565b91600560048201549101549260405196879660ff8660a01c169560018060a01b03169488611cc3565b6001600160401b03811161028e5760051b60200190565b9080601f83011215610335578135611dc081611d92565b92611dce60405194856102ae565b81845260208085019260051b82010192831161033557602001905b828210611df65750505090565b8135815260209182019101611de9565b908152604081019291906002821015611bc45760200152565b3461033557608036600319011261033557611e3861068e565b602435906001600160401b0382116103355736602383011215610335578160040135611e6381611d92565b92611e7160405194856102ae565b8184526024602085019260051b820101903682116103355760248101925b828410611ed95760443585876001600160401b03831161033557611eba611ec9933690600401611da9565b90611ec36106ba565b92613564565b9061068a60405192839283611e06565b83356001600160401b03811161033557602091611efd83926024369187010161033a565b815201930192611e8f565b3461033557604036600319011261033557600435602435600681101561033557816000526005602052611f4c60018060a01b036002604060002001541633146133d8565b81600052600560205260ff60056040600020015460a01c166006811015611bc457600103611fca57611fc581611fb97fd9a86b644eb5f5b43cc8a700849852481080361c7a4b00ba646d1b46c5585f95936005611fb3876000526005602052604060002090565b01612d88565b6040519182918261387b565b0390a2005b60405162461bcd60e51b8152602060048201526011602482015270135d5cdd0818994818dbdb999a5c9b5959607a1b6044820152606490fd5b346103355760203660031901126103355760043580600052600560205261203b60018060a01b036002604060002001541633146133d8565b80600052600560205260ff60056040600020015460a01c166006811015611bc457612066901561341b565b6000818152600560208190526040909120610cbd9190610ca9565b346103355760a03660031901126103355761209a61068e565b6024356001600160401b038111610335576120b9903690600401610e6a565b6044929192356001600160401b038111610335576120db903690600401610e6a565b9390916120e66106ba565b916084359333600052600660205261210c60018060a01b03604060002054161515612db8565b8683148061242d575b61211e90612e04565b61212985151561388b565b6001600160a01b03861660009081526007602052604090208054612157906001600160a01b03908116610f4b565b60025461216e90610c47906001600160a01b031681565b612179811515612e7f565b6000906000600484016003600286019501945b8c888a8c8187106123d257505050505050506121af91925060018060a01b031690565b60405163e612268560e01b81526001600160a01b038716600482015290602090829060249082905afa8015610d4a57612220926121fe926000926123ad575b50610fe990610fe48315156134cc565b61221061100061100761100084612f86565b9087101590816123a25750613063565b6003549661223061102e89612cc2565b61229161223b6102cf565b8981523360208201526001600160a01b038916604082015261225b6130c4565b6060820152608081018890526001600160a01b03871660a0820152600060c082015261108b8a6000526005602052604060002090565b8560005b8986821061234f576001548a9084908a906122b8906001600160a01b0316610c47565b91823b1561033557604051630518e19b60e31b8152600481018690523360248201526001600160a01b038581166044830152929092166064830152608482015290600090829060a490829084905af18015610d4a5761114057506040516001600160a01b039091169133917fe3f4f7fc5607c6ab42a1ec9a7537ede8a0731377be155565f5f20c1fa298f449908061113b8161336c565b610fe986600194876111b66111a589612380898f61237a61239a9b6000526004602052604060002090565b98612ebc565b97909561127a8b8461239382828b612f52565b3598612f52565b018690612295565b905086111538611018565b610fe99192506123cb9060203d602011611206576111f781836102ae565b91906121ee565b92828761124e6112478d61123a849f9c8c9e9f99986112408d9e9d61241660019f6124219f611247906112929f6124119361123a8a8a610ad994612ebc565b613523565b61123a84848c612ebc565b9501919493929061218c565b50821515612115565b346103355760203660031901126103355760043560005260046020526020604060002054604051908152f35b34610335576000366003190112610335576020600354604051908152f35b346103355760403660031901126103355761249961068e565b6024356001600160401b038111610335576124b890369060040161033a565b9060018060a01b0316600052600760205260ff6125006040600020926124e860018060a01b038554161515612c60565b60036124f76002860183612b34565b54940190612b34565b541690801561251d576040805191825260ff929092166020820152f35b60405162461bcd60e51b81526020600482015260166024820152754974656d206e6f7420666f756e6420696e206d656e7560501b6044820152606490fd5b346103355760203660031901126103355761257461068e565b61257c613952565b6001546001600160a01b03166125ee576001600160a01b031680156125bc57600180546001600160a01b0319166001600160a01b03909216919091179055005b60405162461bcd60e51b815260206004820152600a60248201526962616420657363726f7760b01b6044820152606490fd5b60405162461bcd60e51b8152602060048201526012602482015271115cd8dc9bddc8185b1c9958591e481cd95d60721b6044820152606490fd5b6001600160a01b0391821681529116602082015260a0604082018190529294936102de9390926080929161265f91908301906105f1565b9560608201520190611cb6565b34610335576020366003190112610335576004356000526005602052604060002060018060a01b0360018201541661068a60018060a01b036002840154169260048101546126c7600360ff600585015460a01c16930161070a565b60405195869586612628565b34610335576020366003190112610335576001600160a01b036126f461068e565b166000526007602052604060002060018060a01b0381541661068a612724600161ffff600586015416940161070a565b92604051938493846107ac565b634e487b7160e01b600052603260045260246000fd5b8054821015610a7f576000526003602060002091020190600090565b346103355760403660031901126103355760043560243590600052600460205260406000209081548110156103355761279b91612747565b506127a58161070a565b61068a6002600184015493015460405193849384610616565b34610335576000366003190112610335576001546040516001600160a01b039091168152602090f35b6001600160a01b0391821681529116602082015260c0604082018190529295946102de94909360a09361281c918401906105f1565b966060830152600180841b031660808201520190611cb6565b34610335576020366003190112610335576004358060005260056020526128636040600020918254146138cf565b600181015460028201546004830154600584015490936001600160a01b039283169361068a9316906128979060030161070a565b60405195869560a085901c60ff16946001600160a01b031693919291876127e7565b34610335576020366003190112610335576128d261068e565b6128da613952565b6001600160a01b0316801561292c57600080546001600160a01b03198116831782556001600160a01b0316907f8be0079c531659141344cd1fd0a4f28419497f9722a3daafe3b4186f6b6457e09080a3005b631e4fbdf760e01b600052600060045260246000fd5b602081016020825282518091526040820191602060408360051b8301019401926000915b83831061297557505050505090565b9091929394602080600192603f198582030186528851906040806129a284516060855260608501906105f1565b938581015186850152015191015297019301930191939290612966565b34610335576020366003190112610335576004358060005260056020526129ec81604060002054146138cf565b600052600460205260406000208054612a0481611d92565b91612a1260405193846102ae565b818352602083019060005260206000206000915b838310612a3b576040518061068a8782612942565b60036020600192604051612a4e81610293565b612a578661070a565b8152848601548382015260028601546040820152815201920192019190612a26565b15612a8057565b60405162461bcd60e51b815260206004820152601b60248201527f4e6f74206120726567697374657265642072657374617572616e7400000000006044820152606490fd5b15612acc57565b60405162461bcd60e51b815260206004820152600a602482015269456d707479206974656d60b01b6044820152606490fd5b15612b0557565b60405162461bcd60e51b8152602060048201526007602482015266746f6f2062696760c81b6044820152606490fd5b602090612b4e9282604051948386809551938492016105ce565b82019081520301902090565b601f8211612b6757505050565b6000526020600020906020601f840160051c83019310612ba2575b601f0160051c01905b818110612b96575050565b60008155600101612b8b565b9091508190612b82565b15612bb357565b60405162461bcd60e51b815260206004820152601060248201526f736c69707061676520746f6f2062696760801b6044820152606490fd5b60408051909190612bfc83826102ae565b6001815291601f1901366020840137565b90612c1782611d92565b612c2460405191826102ae565b8281528092612c35601f1991611d92565b0190602036910137565b805115610a7f5760200190565b8051821015610a7f5760209160051b010190565b15612c6757565b60405162461bcd60e51b815260206004820152601960248201527f52657374617572616e74206e6f742072656769737465726564000000000000006044820152606490fd5b634e487b7160e01b600052601160045260246000fd5b6000198114612cd15760010190565b612cac565b15612cdd57565b60405162461bcd60e51b815260206004820152602660248201527f4f6e6c7920637573746f6d6572206f722072657374617572616e742063616e2060448201526518d85b98d95b60d21b6064820152608490fd5b15612d3857565b60405162461bcd60e51b815260206004820152602260248201527f43616e6e6f742063616e63656c206f7264657220696e20746869732073746174604482015261757360f01b6064820152608490fd5b906006811015611bc457815460ff60a01b191660a09190911b60ff60a01b16179055565b6040513d6000823e3d90fd5b15612dbf57565b60405162461bcd60e51b815260206004820152601960248201527f4e6f742061207265676973746572656420637573746f6d6572000000000000006044820152606490fd5b15612e0b57565b60405162461bcd60e51b815260206004820152600b60248201526a626164206c656e6774687360a81b6044820152606490fd5b15612e4557565b60405162461bcd60e51b8152602060048201526012602482015271155b9adb9bdddb881c995cdd185d5c985b9d60721b6044820152606490fd5b15612e8657565b60405162461bcd60e51b815260206004820152600e60248201526d13dc9858db19481b9bdd081cd95d60921b6044820152606490fd5b9190811015610a7f5760051b81013590601e19813603018212156103355701908135916001600160401b038311610335576020018236038113610335579190565b6020919283604051948593843782019081520301902090565b15612f1d57565b60405162461bcd60e51b815260206004820152600d60248201526c6e6f206669617420707269636560981b6044820152606490fd5b9190811015610a7f5760051b0190565b90670de0b6b3a7640000820291808304670de0b6b3a76400001490151715612cd157565b90605a820291808304605a1490151715612cd157565b90606e820291808304606e1490151715612cd157565b81810292918115918404141715612cd157565b60ff166012039060ff8211612cd157565b60ff16604d8111612cd157600a0a90565b91908201809211612cd157565b90816020910312610335575190565b1561300a57565b60405162461bcd60e51b8152602060048201526011602482015270455448207072696365206d697373696e6760781b6044820152606490fd5b811561304d570490565b634e487b7160e01b600052601260045260246000fd5b1561306a57565b60405162461bcd60e51b815260206004820152602c60248201527f7072696365206d6f766564202d20636865636b20736c6970706167652028313060448201526b2520746f6c6572616e63652960a01b6064820152608490fd5b604051906130d36040836102ae565b60058252644d554c544960d81b6020830152565b8151815560208201516001820180546001600160a01b039283166001600160a01b03199182161790915560408401516002840180549190931691161790556060820151805160038301916001600160401b03821161028e576131538261314d85546106d0565b85612b5a565b602090601f83116001146131d1579261318e836005946102de98979460c09760009261055c5750508160011b916000199060031b1c19161790565b90555b6080840151600482015560a0840151910180546001600160a01b0319166001600160a01b03909216919091178155910151906131cc82611cac565b612d88565b90601f198316916131e785600052602060002090565b9260005b8181106132315750936102de97969360c096936001938360059810613218575b505050811b019055613191565b015160001960f88460031b161c1916905538808061320b565b929360206001819287860151815501950193016131eb565b80546801000000000000000081101561028e5761326b91600182018155612747565b9190916133565780518051906001600160401b03821161028e576132998261329386546106d0565b86612b5a565b602090601f83116001146132e35782604093600295936132cf9360009261055c5750508160011b916000199060031b1c19161790565b84555b602081015160018501550151910155565b90601f198316916132f986600052602060002090565b9260005b81811061333e57509260019285926040966002989610613325575b505050811b0184556132d2565b015160001960f88460031b161c19169055388080613318565b929360206001819287860151815501950193016132fd565b634e487b7160e01b600052600060045260246000fd5b6060906020815260056020820152644d554c544960d81b60408201520190565b1561339357565b60405162461bcd60e51b815260206004820152601760248201527f746f6b656e20636f6e76657273696f6e206661696c65640000000000000000006044820152606490fd5b156133df57565b60405162461bcd60e51b8152602060048201526014602482015273139bdd081bdc99195c881c995cdd185d5c985b9d60621b6044820152606490fd5b1561342257565b60405162461bcd60e51b8152602060048201526024808201527f4f7264657220616c726561647920636f6e6669726d6564206f722070726f63656044820152631cdcd95960e21b6064820152608490fd5b1561347a57565b60405162461bcd60e51b815260206004820152601c60248201527f53656e642045544820746f2073686f7720696e206163746976697479000000006044820152606490fd5b91908203918211612cd157565b156134d357565b60405162461bcd60e51b8152602060048201526013602482015272746f6b656e207072696365206d697373696e6760681b6044820152606490fd5b90816020910312610335575161035581610358565b1561352a57565b60405162461bcd60e51b81526020600482015260126024820152711d1bdad95b881b9bdd081858d8d95c1d195960721b6044820152606490fd5b919093929361359f6000936135858351855181149081613871575b50612e04565b6001600160a01b0316600090815260076020526040902090565b80549094906135b8906001600160a01b03908116610f4b565b6002546135cf90610c47906001600160a01b031681565b946135db861515612e7f565b6001600160a01b03871696876136f05750600496506000956020906001600160a01b031660405163d2c8081f60e01b815298899182905afa968715610d4a576000976136cf575b5061363287969592961515613003565b6000946003600283019201925b84518710156136c4576136b36001916112928b610fe9610fe48b8b8e6136826112478e6136758f61367b8691613675838a612c4c565b51612b34565b5496612c4c565b9260ff8416156136bb575b826136ac61128793611281936136a761128c971515612f16565b612c4c565b5190612fb2565b96019561363f565b6012935061368d565b975095945050505050565b6136e991975060203d602011611206576111f781836102ae565b9538613622565b60405163e612268560e01b81526001600160a01b038083166004830152600199949892969195939491939260209187916024918391165afa948515610d4a5760009561384c575b5060206004916137488715156134cc565b60405163313ce56760e01b815292839182905afa938415610d4a57899160009561381b575b5090809594939291600097600482016003600284019301935b613799575b505050505050505050509190565b9091929394959697989985518b1015613812576138018a916112928b610fe98f61128c6137fb8f928f908f908f8f8f918f8461367b611247946137f161241161124761368299610ad9613675986136758f8a90612c4c565b613675838a612c4c565b91612fd6565b9a0198979695949392919088613786565b9989985061378b565b61383e91955060203d602011613845575b61383681836102ae565b81019061350e565b933861376d565b503d61382c565b6004919550613869602091823d8411611206576111f781836102ae565b959150613737565b905015153861357f565b6020810192916102de9190611cb6565b1561389257565b60405162461bcd60e51b81526020600482015260156024820152741d1bdad95b88185b5bdd5b9d081c995c5d5a5c9959605a1b6044820152606490fd5b156138d657565b60405162461bcd60e51b815260206004820152600f60248201526e13dc99195c881b9bdd08199bdd5b99608a1b6044820152606490fd5b60405162461bcd60e51b815260206004820152601760248201527f44697265637420455448206e6f742061636365707465640000000000000000006044820152606490fd5b6000546001600160a01b0316330361396657565b63118cdaa760e01b6000523360045260246000fdfea2646970667358221220932e4d2e7e76e75c3f40a87e97c0a0987f8cf93e660037534f5f4e8588c2659364736f6c634300081c0033",
  "linkReferences": {},
  "deployedLinkReferences": {}
}